{
  "contracts/meme_nft.sol": {
    "MemeNFT": {
      "abi": [
        {
          "inputs": [
            {
              "internalType": "string",
              "name": "_name",
              "type": "string"
            },
            {
              "internalType": "string",
              "name": "_symbol",
              "type": "string"
            },
            {
              "internalType": "string",
              "name": "_initBaseURI",
              "type": "string"
            }
          ],
          "stateMutability": "nonpayable",
          "type": "constructor"
        },
        {
          "anonymous": false,
          "inputs": [
            {
              "indexed": true,
              "internalType": "address",
              "name": "owner",
              "type": "address"
            },
            {
              "indexed": true,
              "internalType": "address",
              "name": "approved",
              "type": "address"
            },
            {
              "indexed": true,
              "internalType": "uint256",
              "name": "tokenId",
              "type": "uint256"
            }
          ],
          "name": "Approval",
          "type": "event"
        },
        {
          "anonymous": false,
          "inputs": [
            {
              "indexed": true,
              "internalType": "address",
              "name": "owner",
              "type": "address"
            },
            {
              "indexed": true,
              "internalType": "address",
              "name": "operator",
              "type": "address"
            },
            {
              "indexed": false,
              "internalType": "bool",
              "name": "approved",
              "type": "bool"
            }
          ],
          "name": "ApprovalForAll",
          "type": "event"
        },
        {
          "anonymous": false,
          "inputs": [
            {
              "indexed": true,
              "internalType": "address",
              "name": "previousOwner",
              "type": "address"
            },
            {
              "indexed": true,
              "internalType": "address",
              "name": "newOwner",
              "type": "address"
            }
          ],
          "name": "OwnershipTransferred",
          "type": "event"
        },
        {
          "anonymous": false,
          "inputs": [
            {
              "indexed": true,
              "internalType": "address",
              "name": "from",
              "type": "address"
            },
            {
              "indexed": true,
              "internalType": "address",
              "name": "to",
              "type": "address"
            },
            {
              "indexed": true,
              "internalType": "uint256",
              "name": "tokenId",
              "type": "uint256"
            }
          ],
          "name": "Transfer",
          "type": "event"
        },
        {
          "inputs": [
            {
              "internalType": "address",
              "name": "to",
              "type": "address"
            },
            {
              "internalType": "uint256",
              "name": "tokenId",
              "type": "uint256"
            }
          ],
          "name": "approve",
          "outputs": [],
          "stateMutability": "nonpayable",
          "type": "function"
        },
        {
          "inputs": [
            {
              "internalType": "address",
              "name": "owner",
              "type": "address"
            }
          ],
          "name": "balanceOf",
          "outputs": [
            {
              "internalType": "uint256",
              "name": "",
              "type": "uint256"
            }
          ],
          "stateMutability": "view",
          "type": "function"
        },
        {
          "inputs": [],
          "name": "baseExtension",
          "outputs": [
            {
              "internalType": "string",
              "name": "",
              "type": "string"
            }
          ],
          "stateMutability": "view",
          "type": "function"
        },
        {
          "inputs": [],
          "name": "cost",
          "outputs": [
            {
              "internalType": "uint256",
              "name": "",
              "type": "uint256"
            }
          ],
          "stateMutability": "view",
          "type": "function"
        },
        {
          "inputs": [
            {
              "internalType": "uint256",
              "name": "tokenId",
              "type": "uint256"
            }
          ],
          "name": "getApproved",
          "outputs": [
            {
              "internalType": "address",
              "name": "",
              "type": "address"
            }
          ],
          "stateMutability": "view",
          "type": "function"
        },
        {
          "inputs": [
            {
              "internalType": "address",
              "name": "owner",
              "type": "address"
            },
            {
              "internalType": "address",
              "name": "operator",
              "type": "address"
            }
          ],
          "name": "isApprovedForAll",
          "outputs": [
            {
              "internalType": "bool",
              "name": "",
              "type": "bool"
            }
          ],
          "stateMutability": "view",
          "type": "function"
        },
        {
          "inputs": [],
          "name": "maxMintAmount",
          "outputs": [
            {
              "internalType": "uint256",
              "name": "",
              "type": "uint256"
            }
          ],
          "stateMutability": "view",
          "type": "function"
        },
        {
          "inputs": [],
          "name": "maxSupply",
          "outputs": [
            {
              "internalType": "uint256",
              "name": "",
              "type": "uint256"
            }
          ],
          "stateMutability": "view",
          "type": "function"
        },
        {
          "inputs": [
            {
              "internalType": "uint256",
              "name": "_mintAmount",
              "type": "uint256"
            }
          ],
          "name": "mint",
          "outputs": [],
          "stateMutability": "payable",
          "type": "function"
        },
        {
          "inputs": [],
          "name": "name",
          "outputs": [
            {
              "internalType": "string",
              "name": "",
              "type": "string"
            }
          ],
          "stateMutability": "view",
          "type": "function"
        },
        {
          "inputs": [],
          "name": "owner",
          "outputs": [
            {
              "internalType": "address",
              "name": "",
              "type": "address"
            }
          ],
          "stateMutability": "view",
          "type": "function"
        },
        {
          "inputs": [
            {
              "internalType": "uint256",
              "name": "tokenId",
              "type": "uint256"
            }
          ],
          "name": "ownerOf",
          "outputs": [
            {
              "internalType": "address",
              "name": "",
              "type": "address"
            }
          ],
          "stateMutability": "view",
          "type": "function"
        },
        {
          "inputs": [
            {
              "internalType": "bool",
              "name": "_state",
              "type": "bool"
            }
          ],
          "name": "pause",
          "outputs": [],
          "stateMutability": "nonpayable",
          "type": "function"
        },
        {
          "inputs": [],
          "name": "paused",
          "outputs": [
            {
              "internalType": "bool",
              "name": "",
              "type": "bool"
            }
          ],
          "stateMutability": "view",
          "type": "function"
        },
        {
          "inputs": [],
          "name": "renounceOwnership",
          "outputs": [],
          "stateMutability": "nonpayable",
          "type": "function"
        },
        {
          "inputs": [
            {
              "internalType": "address",
              "name": "from",
              "type": "address"
            },
            {
              "internalType": "address",
              "name": "to",
              "type": "address"
            },
            {
              "internalType": "uint256",
              "name": "tokenId",
              "type": "uint256"
            }
          ],
          "name": "safeTransferFrom",
          "outputs": [],
          "stateMutability": "nonpayable",
          "type": "function"
        },
        {
          "inputs": [
            {
              "internalType": "address",
              "name": "from",
              "type": "address"
            },
            {
              "internalType": "address",
              "name": "to",
              "type": "address"
            },
            {
              "internalType": "uint256",
              "name": "tokenId",
              "type": "uint256"
            },
            {
              "internalType": "bytes",
              "name": "_data",
              "type": "bytes"
            }
          ],
          "name": "safeTransferFrom",
          "outputs": [],
          "stateMutability": "nonpayable",
          "type": "function"
        },
        {
          "inputs": [
            {
              "internalType": "address",
              "name": "operator",
              "type": "address"
            },
            {
              "internalType": "bool",
              "name": "approved",
              "type": "bool"
            }
          ],
          "name": "setApprovalForAll",
          "outputs": [],
          "stateMutability": "nonpayable",
          "type": "function"
        },
        {
          "inputs": [
            {
              "internalType": "string",
              "name": "_newBaseExtension",
              "type": "string"
            }
          ],
          "name": "setBaseExtension",
          "outputs": [],
          "stateMutability": "nonpayable",
          "type": "function"
        },
        {
          "inputs": [
            {
              "internalType": "string",
              "name": "_newBaseURI",
              "type": "string"
            }
          ],
          "name": "setBaseURI",
          "outputs": [],
          "stateMutability": "nonpayable",
          "type": "function"
        },
        {
          "inputs": [
            {
              "internalType": "uint256",
              "name": "_newCost",
              "type": "uint256"
            }
          ],
          "name": "setCost",
          "outputs": [],
          "stateMutability": "nonpayable",
          "type": "function"
        },
        {
          "inputs": [
            {
              "internalType": "uint256",
              "name": "_newmaxMintAmount",
              "type": "uint256"
            }
          ],
          "name": "setmaxMintAmount",
          "outputs": [],
          "stateMutability": "nonpayable",
          "type": "function"
        },
        {
          "inputs": [
            {
              "internalType": "bytes4",
              "name": "interfaceId",
              "type": "bytes4"
            }
          ],
          "name": "supportsInterface",
          "outputs": [
            {
              "internalType": "bool",
              "name": "",
              "type": "bool"
            }
          ],
          "stateMutability": "view",
          "type": "function"
        },
        {
          "inputs": [],
          "name": "symbol",
          "outputs": [
            {
              "internalType": "string",
              "name": "",
              "type": "string"
            }
          ],
          "stateMutability": "view",
          "type": "function"
        },
        {
          "inputs": [
            {
              "internalType": "uint256",
              "name": "index",
              "type": "uint256"
            }
          ],
          "name": "tokenByIndex",
          "outputs": [
            {
              "internalType": "uint256",
              "name": "",
              "type": "uint256"
            }
          ],
          "stateMutability": "view",
          "type": "function"
        },
        {
          "inputs": [
            {
              "internalType": "address",
              "name": "owner",
              "type": "address"
            },
            {
              "internalType": "uint256",
              "name": "index",
              "type": "uint256"
            }
          ],
          "name": "tokenOfOwnerByIndex",
          "outputs": [
            {
              "internalType": "uint256",
              "name": "",
              "type": "uint256"
            }
          ],
          "stateMutability": "view",
          "type": "function"
        },
        {
          "inputs": [
            {
              "internalType": "uint256",
              "name": "tokenId",
              "type": "uint256"
            }
          ],
          "name": "tokenURI",
          "outputs": [
            {
              "internalType": "string",
              "name": "",
              "type": "string"
            }
          ],
          "stateMutability": "view",
          "type": "function"
        },
        {
          "inputs": [],
          "name": "totalSupply",
          "outputs": [
            {
              "internalType": "uint256",
              "name": "",
              "type": "uint256"
            }
          ],
          "stateMutability": "view",
          "type": "function"
        },
        {
          "inputs": [
            {
              "internalType": "address",
              "name": "from",
              "type": "address"
            },
            {
              "internalType": "address",
              "name": "to",
              "type": "address"
            },
            {
              "internalType": "uint256",
              "name": "tokenId",
              "type": "uint256"
            }
          ],
          "name": "transferFrom",
          "outputs": [],
          "stateMutability": "nonpayable",
          "type": "function"
        },
        {
          "inputs": [
            {
              "internalType": "address",
              "name": "newOwner",
              "type": "address"
            }
          ],
          "name": "transferOwnership",
          "outputs": [],
          "stateMutability": "nonpayable",
          "type": "function"
        },
        {
          "inputs": [
            {
              "internalType": "address",
              "name": "_owner",
              "type": "address"
            }
          ],
          "name": "walletOfOwner",
          "outputs": [
            {
              "internalType": "uint256[]",
              "name": "",
              "type": "uint256[]"
            }
          ],
          "stateMutability": "view",
          "type": "function"
        },
        {
          "inputs": [],
          "name": "withdraw",
          "outputs": [],
          "stateMutability": "payable",
          "type": "function"
        }
      ],
      "evm": {
        "bytecode": {
          "linkReferences": {},
          "object": "60c06040526005608081905264173539b7b760d91b60a09081526200002891600c9190620001a7565b50670de0b6b3a7640000600d55601a600e556002600f556010805460ff191690553480156200005657600080fd5b506040516200268a3803806200268a833981016040819052620000799162000300565b82518390839062000092906000906020850190620001a7565b508051620000a8906001906020840190620001a7565b505050620000c5620000bf620000d960201b60201c565b620000dd565b620000d0816200012f565b505050620003e0565b3390565b600a80546001600160a01b038381166001600160a01b0319831681179093556040519116919082907f8be0079c531659141344cd1fd0a4f28419497f9722a3daafe3b4186f6b6457e090600090a35050565b600a546001600160a01b031633146200018e5760405162461bcd60e51b815260206004820181905260248201527f4f776e61626c653a2063616c6c6572206973206e6f7420746865206f776e6572604482015260640160405180910390fd5b8051620001a390600b906020840190620001a7565b5050565b828054620001b5906200038d565b90600052602060002090601f016020900481019282620001d9576000855562000224565b82601f10620001f457805160ff191683800117855562000224565b8280016001018555821562000224579182015b828111156200022457825182559160200191906001019062000207565b506200023292915062000236565b5090565b5b8082111562000232576000815560010162000237565b600082601f8301126200025e578081fd5b81516001600160401b03808211156200027b576200027b620003ca565b604051601f8301601f19908116603f01168101908282118183101715620002a657620002a6620003ca565b81604052838152602092508683858801011115620002c2578485fd5b8491505b83821015620002e55785820183015181830184015290820190620002c6565b83821115620002f657848385830101525b9695505050505050565b60008060006060848603121562000315578283fd5b83516001600160401b03808211156200032c578485fd5b6200033a878388016200024d565b9450602086015191508082111562000350578384fd5b6200035e878388016200024d565b9350604086015191508082111562000374578283fd5b5062000383868287016200024d565b9150509250925092565b600281046001821680620003a257607f821691505b60208210811415620003c457634e487b7160e01b600052602260045260246000fd5b50919050565b634e487b7160e01b600052604160045260246000fd5b61229a80620003f06000396000f3fe6080604052600436106101e35760003560e01c80635c975abb11610102578063a22cb46511610095578063d5abeb0111610064578063d5abeb0114610547578063da3ef23f1461055d578063e985e9c51461057d578063f2fde38b146105c6576101e3565b8063a22cb465146104d2578063b88d4fde146104f2578063c668286214610512578063c87b56dd14610527576101e3565b80637f00c7a6116100d15780637f00c7a61461046c5780638da5cb5b1461048c57806395d89b41146104aa578063a0712d68146104bf576101e3565b80635c975abb146103fd5780636352211e1461041757806370a0823114610437578063715018a614610457576101e3565b806323b872dd1161017a578063438b630011610149578063438b63001461037057806344a0d68a1461039d5780634f6ccce7146103bd57806355f804b3146103dd576101e3565b806323b872dd146103085780632f745c59146103285780633ccfd60b1461034857806342842e0e14610350576101e3565b8063095ea7b3116101b6578063095ea7b31461029957806313faede6146102b957806318160ddd146102dd578063239c70ae146102f2576101e3565b806301ffc9a7146101e857806302329a291461021d57806306fdde031461023f578063081812fc14610261575b600080fd5b3480156101f457600080fd5b50610208610203366004611e24565b6105e6565b60405190151581526020015b60405180910390f35b34801561022957600080fd5b5061023d610238366004611e0a565b610613565b005b34801561024b57600080fd5b50610254610659565b6040516102149190612029565b34801561026d57600080fd5b5061028161027c366004611ea2565b6106eb565b6040516001600160a01b039091168152602001610214565b3480156102a557600080fd5b5061023d6102b4366004611de1565b610780565b3480156102c557600080fd5b506102cf600d5481565b604051908152602001610214565b3480156102e957600080fd5b506008546102cf565b3480156102fe57600080fd5b506102cf600f5481565b34801561031457600080fd5b5061023d610323366004611d04565b610896565b34801561033457600080fd5b506102cf610343366004611de1565b6108c7565b61023d61095d565b34801561035c57600080fd5b5061023d61036b366004611d04565b6109fb565b34801561037c57600080fd5b5061039061038b366004611cb8565b610a16565b6040516102149190611fe5565b3480156103a957600080fd5b5061023d6103b8366004611ea2565b610ad4565b3480156103c957600080fd5b506102cf6103d8366004611ea2565b610b03565b3480156103e957600080fd5b5061023d6103f8366004611e5c565b610ba4565b34801561040957600080fd5b506010546102089060ff1681565b34801561042357600080fd5b50610281610432366004611ea2565b610be5565b34801561044357600080fd5b506102cf610452366004611cb8565b610c5c565b34801561046357600080fd5b5061023d610ce3565b34801561047857600080fd5b5061023d610487366004611ea2565b610d19565b34801561049857600080fd5b50600a546001600160a01b0316610281565b3480156104b657600080fd5b50610254610d48565b61023d6104cd366004611ea2565b610d57565b3480156104de57600080fd5b5061023d6104ed366004611db8565b610e04565b3480156104fe57600080fd5b5061023d61050d366004611d3f565b610e0f565b34801561051e57600080fd5b50610254610e47565b34801561053357600080fd5b50610254610542366004611ea2565b610ed5565b34801561055357600080fd5b506102cf600e5481565b34801561056957600080fd5b5061023d610578366004611e5c565b610fb3565b34801561058957600080fd5b50610208610598366004611cd2565b6001600160a01b03918216600090815260056020908152604080832093909416825291909152205460ff1690565b3480156105d257600080fd5b5061023d6105e1366004611cb8565b610ff0565b60006001600160e01b0319821663780e9d6360e01b148061060b575061060b82611088565b90505b919050565b600a546001600160a01b031633146106465760405162461bcd60e51b815260040161063d9061208e565b60405180910390fd5b6010805460ff1916911515919091179055565b606060008054610668906121a2565b80601f0160208091040260200160405190810160405280929190818152602001828054610694906121a2565b80156106e15780601f106106b6576101008083540402835291602001916106e1565b820191906000526020600020905b8154815290600101906020018083116106c457829003601f168201915b5050505050905090565b6000818152600260205260408120546001600160a01b03166107645760405162461bcd60e51b815260206004820152602c60248201527f4552433732313a20617070726f76656420717565727920666f72206e6f6e657860448201526b34b9ba32b73a103a37b5b2b760a11b606482015260840161063d565b506000908152600460205260409020546001600160a01b031690565b600061078b82610be5565b9050806001600160a01b0316836001600160a01b031614156107f95760405162461bcd60e51b815260206004820152602160248201527f4552433732313a20617070726f76616c20746f2063757272656e74206f776e656044820152603960f91b606482015260840161063d565b336001600160a01b038216148061081557506108158133610598565b6108875760405162461bcd60e51b815260206004820152603860248201527f4552433732313a20617070726f76652063616c6c6572206973206e6f74206f7760448201527f6e6572206e6f7220617070726f76656420666f7220616c6c0000000000000000606482015260840161063d565b61089183836110d8565b505050565b6108a03382611146565b6108bc5760405162461bcd60e51b815260040161063d906120c3565b61089183838361123d565b60006108d283610c5c565b82106109345760405162461bcd60e51b815260206004820152602b60248201527f455243373231456e756d657261626c653a206f776e657220696e646578206f7560448201526a74206f6620626f756e647360a81b606482015260840161063d565b506001600160a01b03919091166000908152600660209081526040808320938352929052205490565b600a546001600160a01b031633146109875760405162461bcd60e51b815260040161063d9061208e565b600061099b600a546001600160a01b031690565b6001600160a01b03164760405160006040518083038185875af1925050503d80600081146109e5576040519150601f19603f3d011682016040523d82523d6000602084013e6109ea565b606091505b50509050806109f857600080fd5b50565b61089183838360405180602001604052806000815250610e0f565b60606000610a2383610c5c565b905060008167ffffffffffffffff811115610a4e57634e487b7160e01b600052604160045260246000fd5b604051908082528060200260200182016040528015610a77578160200160208202803683370190505b50905060005b82811015610acc57610a8f85826108c7565b828281518110610aaf57634e487b7160e01b600052603260045260246000fd5b602090810291909101015280610ac4816121dd565b915050610a7d565b509392505050565b600a546001600160a01b03163314610afe5760405162461bcd60e51b815260040161063d9061208e565b600d55565b6000610b0e60085490565b8210610b715760405162461bcd60e51b815260206004820152602c60248201527f455243373231456e756d657261626c653a20676c6f62616c20696e646578206f60448201526b7574206f6620626f756e647360a01b606482015260840161063d565b60088281548110610b9257634e487b7160e01b600052603260045260246000fd5b90600052602060002001549050919050565b600a546001600160a01b03163314610bce5760405162461bcd60e51b815260040161063d9061208e565b8051610be190600b906020840190611b82565b5050565b6000818152600260205260408120546001600160a01b03168061060b5760405162461bcd60e51b815260206004820152602960248201527f4552433732313a206f776e657220717565727920666f72206e6f6e657869737460448201526832b73a103a37b5b2b760b91b606482015260840161063d565b60006001600160a01b038216610cc75760405162461bcd60e51b815260206004820152602a60248201527f4552433732313a2062616c616e636520717565727920666f7220746865207a65604482015269726f206164647265737360b01b606482015260840161063d565b506001600160a01b031660009081526003602052604090205490565b600a546001600160a01b03163314610d0d5760405162461bcd60e51b815260040161063d9061208e565b610d1760006113e4565b565b600a546001600160a01b03163314610d435760405162461bcd60e51b815260040161063d9061208e565b600f55565b606060018054610668906121a2565b6000610d6260085490565b60105490915060ff1615610d7557600080fd5b60008211610d8257600080fd5b600f54821115610d9157600080fd5b600e54610d9e8383612114565b1115610da957600080fd5b600a546001600160a01b03163314610dd55781600d54610dc99190612140565b341015610dd557600080fd5b60015b82811161089157610df233610ded8385612114565b611436565b80610dfc816121dd565b915050610dd8565b610be1338383611450565b610e193383611146565b610e355760405162461bcd60e51b815260040161063d906120c3565b610e418484848461151f565b50505050565b600c8054610e54906121a2565b80601f0160208091040260200160405190810160405280929190818152602001828054610e80906121a2565b8015610ecd5780601f10610ea257610100808354040283529160200191610ecd565b820191906000526020600020905b815481529060010190602001808311610eb057829003601f168201915b505050505081565b6000818152600260205260409020546060906001600160a01b0316610f545760405162461bcd60e51b815260206004820152602f60248201527f4552433732314d657461646174613a2055524920717565727920666f72206e6f60448201526e3732bc34b9ba32b73a103a37b5b2b760891b606482015260840161063d565b6000610f5e611552565b90506000815111610f7e5760405180602001604052806000815250610fac565b80610f8884611561565b600c604051602001610f9c93929190611ee6565b6040516020818303038152906040525b9392505050565b600a546001600160a01b03163314610fdd5760405162461bcd60e51b815260040161063d9061208e565b8051610be190600c906020840190611b82565b600a546001600160a01b0316331461101a5760405162461bcd60e51b815260040161063d9061208e565b6001600160a01b03811661107f5760405162461bcd60e51b815260206004820152602660248201527f4f776e61626c653a206e6577206f776e657220697320746865207a65726f206160448201526564647265737360d01b606482015260840161063d565b6109f8816113e4565b60006001600160e01b031982166380ac58cd60e01b14806110b957506001600160e01b03198216635b5e139f60e01b145b8061060b57506301ffc9a760e01b6001600160e01b031983161461060b565b600081815260046020526040902080546001600160a01b0319166001600160a01b038416908117909155819061110d82610be5565b6001600160a01b03167f8c5be1e5ebec7d5bd14f71427d1e84f3dd0314c0f7b2291e5b200ac8c7c3b92560405160405180910390a45050565b6000818152600260205260408120546001600160a01b03166111bf5760405162461bcd60e51b815260206004820152602c60248201527f4552433732313a206f70657261746f7220717565727920666f72206e6f6e657860448201526b34b9ba32b73a103a37b5b2b760a11b606482015260840161063d565b60006111ca83610be5565b9050806001600160a01b0316846001600160a01b0316148061121157506001600160a01b0380821660009081526005602090815260408083209388168352929052205460ff165b806112355750836001600160a01b031661122a846106eb565b6001600160a01b0316145b949350505050565b826001600160a01b031661125082610be5565b6001600160a01b0316146112b45760405162461bcd60e51b815260206004820152602560248201527f4552433732313a207472616e736665722066726f6d20696e636f72726563742060448201526437bbb732b960d91b606482015260840161063d565b6001600160a01b0382166113165760405162461bcd60e51b8152602060048201526024808201527f4552433732313a207472616e7366657220746f20746865207a65726f206164646044820152637265737360e01b606482015260840161063d565b61132183838361167c565b61132c6000826110d8565b6001600160a01b038316600090815260036020526040812080546001929061135590849061215f565b90915550506001600160a01b0382166000908152600360205260408120805460019290611383908490612114565b909155505060008181526002602052604080822080546001600160a01b0319166001600160a01b0386811691821790925591518493918716917fddf252ad1be2c89b69c2b068fc378daa952ba7f163c4a11628f55a4df523b3ef91a4610891565b600a80546001600160a01b038381166001600160a01b0319831681179093556040519116919082907f8be0079c531659141344cd1fd0a4f28419497f9722a3daafe3b4186f6b6457e090600090a35050565b610be1828260405180602001604052806000815250611739565b816001600160a01b0316836001600160a01b031614156114b25760405162461bcd60e51b815260206004820152601960248201527f4552433732313a20617070726f766520746f2063616c6c657200000000000000604482015260640161063d565b6001600160a01b03838116600081815260056020908152604080832094871680845294825291829020805460ff191686151590811790915591519182527f17307eab39ab6107e8899845ad3d59bd9653f200f220920489ca2b5937696c31910160405180910390a3505050565b61152a84848461123d565b6115368484848461176c565b610e415760405162461bcd60e51b815260040161063d9061203c565b6060600b8054610668906121a2565b60608161158657506040805180820190915260018152600360fc1b602082015261060e565b8160005b81156115b0578061159a816121dd565b91506115a99050600a8361212c565b915061158a565b60008167ffffffffffffffff8111156115d957634e487b7160e01b600052604160045260246000fd5b6040519080825280601f01601f191660200182016040528015611603576020820181803683370190505b5090505b84156112355761161860018361215f565b9150611625600a866121f8565b611630906030612114565b60f81b81838151811061165357634e487b7160e01b600052603260045260246000fd5b60200101906001600160f81b031916908160001a905350611675600a8661212c565b9450611607565b6001600160a01b0383166116d7576116d281600880546000838152600960205260408120829055600182018355919091527ff3f7a9fe364faab93b216da50a3214154f22a0a2b415b23a84c8169e8b636ee30155565b6116fa565b816001600160a01b0316836001600160a01b0316146116fa576116fa8382611879565b6001600160a01b0382166117165761171181611916565b610891565b826001600160a01b0316826001600160a01b0316146108915761089182826119ef565b6117438383611a33565b611750600084848461176c565b6108915760405162461bcd60e51b815260040161063d9061203c565b60006001600160a01b0384163b1561186e57604051630a85bd0160e11b81526001600160a01b0385169063150b7a02906117b0903390899088908890600401611fa8565b602060405180830381600087803b1580156117ca57600080fd5b505af19250505080156117fa575060408051601f3d908101601f191682019092526117f791810190611e40565b60015b611854573d808015611828576040519150601f19603f3d011682016040523d82523d6000602084013e61182d565b606091505b50805161184c5760405162461bcd60e51b815260040161063d9061203c565b805181602001fd5b6001600160e01b031916630a85bd0160e11b149050611235565b506001949350505050565b6000600161188684610c5c565b611890919061215f565b6000838152600760205260409020549091508082146118e3576001600160a01b03841660009081526006602090815260408083208584528252808320548484528184208190558352600790915290208190555b5060009182526007602090815260408084208490556001600160a01b039094168352600681528383209183525290812055565b6008546000906119289060019061215f565b6000838152600960205260408120546008805493945090928490811061195e57634e487b7160e01b600052603260045260246000fd5b90600052602060002001549050806008838154811061198d57634e487b7160e01b600052603260045260246000fd5b60009182526020808320909101929092558281526009909152604080822084905585825281205560088054806119d357634e487b7160e01b600052603160045260246000fd5b6001900381819060005260206000200160009055905550505050565b60006119fa83610c5c565b6001600160a01b039093166000908152600660209081526040808320868452825280832085905593825260079052919091209190915550565b6001600160a01b038216611a895760405162461bcd60e51b815260206004820181905260248201527f4552433732313a206d696e7420746f20746865207a65726f2061646472657373604482015260640161063d565b6000818152600260205260409020546001600160a01b031615611aee5760405162461bcd60e51b815260206004820152601c60248201527f4552433732313a20746f6b656e20616c7265616479206d696e74656400000000604482015260640161063d565b611afa6000838361167c565b6001600160a01b0382166000908152600360205260408120805460019290611b23908490612114565b909155505060008181526002602052604080822080546001600160a01b0319166001600160a01b03861690811790915590518392907fddf252ad1be2c89b69c2b068fc378daa952ba7f163c4a11628f55a4df523b3ef908290a4610be1565b828054611b8e906121a2565b90600052602060002090601f016020900481019282611bb05760008555611bf6565b82601f10611bc957805160ff1916838001178555611bf6565b82800160010185558215611bf6579182015b82811115611bf6578251825591602001919060010190611bdb565b50611c02929150611c06565b5090565b5b80821115611c025760008155600101611c07565b600067ffffffffffffffff80841115611c3657611c36612238565b604051601f8501601f19908116603f01168101908282118183101715611c5e57611c5e612238565b81604052809350858152868686011115611c7757600080fd5b858560208301376000602087830101525050509392505050565b80356001600160a01b038116811461060e57600080fd5b8035801515811461060e57600080fd5b600060208284031215611cc9578081fd5b610fac82611c91565b60008060408385031215611ce4578081fd5b611ced83611c91565b9150611cfb60208401611c91565b90509250929050565b600080600060608486031215611d18578081fd5b611d2184611c91565b9250611d2f60208501611c91565b9150604084013590509250925092565b60008060008060808587031215611d54578081fd5b611d5d85611c91565b9350611d6b60208601611c91565b925060408501359150606085013567ffffffffffffffff811115611d8d578182fd5b8501601f81018713611d9d578182fd5b611dac87823560208401611c1b565b91505092959194509250565b60008060408385031215611dca578182fd5b611dd383611c91565b9150611cfb60208401611ca8565b60008060408385031215611df3578182fd5b611dfc83611c91565b946020939093013593505050565b600060208284031215611e1b578081fd5b610fac82611ca8565b600060208284031215611e35578081fd5b8135610fac8161224e565b600060208284031215611e51578081fd5b8151610fac8161224e565b600060208284031215611e6d578081fd5b813567ffffffffffffffff811115611e83578182fd5b8201601f81018413611e93578182fd5b61123584823560208401611c1b565b600060208284031215611eb3578081fd5b5035919050565b60008151808452611ed2816020860160208601612176565b601f01601f19169290920160200192915050565b600084516020611ef98285838a01612176565b855191840191611f0c8184848a01612176565b8554920191839060028104600180831680611f2857607f831692505b858310811415611f4657634e487b7160e01b88526022600452602488fd5b808015611f5a5760018114611f6b57611f97565b60ff19851688528388019550611f97565b60008b815260209020895b85811015611f8f5781548a820152908401908801611f76565b505083880195505b50939b9a5050505050505050505050565b6001600160a01b0385811682528416602082015260408101839052608060608201819052600090611fdb90830184611eba565b9695505050505050565b6020808252825182820181905260009190848201906040850190845b8181101561201d57835183529284019291840191600101612001565b50909695505050505050565b600060208252610fac6020830184611eba565b60208082526032908201527f4552433732313a207472616e7366657220746f206e6f6e20455243373231526560408201527131b2b4bb32b91034b6b83632b6b2b73a32b960711b606082015260800190565b6020808252818101527f4f776e61626c653a2063616c6c6572206973206e6f7420746865206f776e6572604082015260600190565b60208082526031908201527f4552433732313a207472616e736665722063616c6c6572206973206e6f74206f6040820152701ddb995c881b9bdc88185c1c1c9bdd9959607a1b606082015260800190565b600082198211156121275761212761220c565b500190565b60008261213b5761213b612222565b500490565b600081600019048311821515161561215a5761215a61220c565b500290565b6000828210156121715761217161220c565b500390565b60005b83811015612191578181015183820152602001612179565b83811115610e415750506000910152565b6002810460018216806121b657607f821691505b602082108114156121d757634e487b7160e01b600052602260045260246000fd5b50919050565b60006000198214156121f1576121f161220c565b5060010190565b60008261220757612207612222565b500690565b634e487b7160e01b600052601160045260246000fd5b634e487b7160e01b600052601260045260246000fd5b634e487b7160e01b600052604160045260246000fd5b6001600160e01b0319811681146109f857600080fdfea2646970667358221220f87040173a4f7d326edac3babaea2c3c649705b4bdf0b1ac0b3c6df0b445ea4364736f6c63430008020033",
          "opcodes": "PUSH1 0xC0 PUSH1 0x40 MSTORE PUSH1 0x5 PUSH1 0x80 DUP2 SWAP1 MSTORE PUSH5 0x173539B7B7 PUSH1 0xD9 SHL PUSH1 0xA0 SWAP1 DUP2 MSTORE PUSH3 0x28 SWAP2 PUSH1 0xC SWAP2 SWAP1 PUSH3 0x1A7 JUMP JUMPDEST POP PUSH8 0xDE0B6B3A7640000 PUSH1 0xD SSTORE PUSH1 0x1A PUSH1 0xE SSTORE PUSH1 0x2 PUSH1 0xF SSTORE PUSH1 0x10 DUP1 SLOAD PUSH1 0xFF NOT AND SWAP1 SSTORE CALLVALUE DUP1 ISZERO PUSH3 0x56 JUMPI PUSH1 0x0 DUP1 REVERT JUMPDEST POP PUSH1 0x40 MLOAD PUSH3 0x268A CODESIZE SUB DUP1 PUSH3 0x268A DUP4 CODECOPY DUP2 ADD PUSH1 0x40 DUP2 SWAP1 MSTORE PUSH3 0x79 SWAP2 PUSH3 0x300 JUMP JUMPDEST DUP3 MLOAD DUP4 SWAP1 DUP4 SWAP1 PUSH3 0x92 SWAP1 PUSH1 0x0 SWAP1 PUSH1 0x20 DUP6 ADD SWAP1 PUSH3 0x1A7 JUMP JUMPDEST POP DUP1 MLOAD PUSH3 0xA8 SWAP1 PUSH1 0x1 SWAP1 PUSH1 0x20 DUP5 ADD SWAP1 PUSH3 0x1A7 JUMP JUMPDEST POP POP POP PUSH3 0xC5 PUSH3 0xBF PUSH3 0xD9 PUSH1 0x20 SHL PUSH1 0x20 SHR JUMP JUMPDEST PUSH3 0xDD JUMP JUMPDEST PUSH3 0xD0 DUP2 PUSH3 0x12F JUMP JUMPDEST POP POP POP PUSH3 0x3E0 JUMP JUMPDEST CALLER SWAP1 JUMP JUMPDEST PUSH1 0xA DUP1 SLOAD PUSH1 0x1 PUSH1 0x1 PUSH1 0xA0 SHL SUB DUP4 DUP2 AND PUSH1 0x1 PUSH1 0x1 PUSH1 0xA0 SHL SUB NOT DUP4 AND DUP2 OR SWAP1 SWAP4 SSTORE PUSH1 0x40 MLOAD SWAP2 AND SWAP2 SWAP1 DUP3 SWAP1 PUSH32 0x8BE0079C531659141344CD1FD0A4F28419497F9722A3DAAFE3B4186F6B6457E0 SWAP1 PUSH1 0x0 SWAP1 LOG3 POP POP JUMP JUMPDEST PUSH1 0xA SLOAD PUSH1 0x1 PUSH1 0x1 PUSH1 0xA0 SHL SUB AND CALLER EQ PUSH3 0x18E JUMPI PUSH1 0x40 MLOAD PUSH3 0x461BCD PUSH1 0xE5 SHL DUP2 MSTORE PUSH1 0x20 PUSH1 0x4 DUP3 ADD DUP2 SWAP1 MSTORE PUSH1 0x24 DUP3 ADD MSTORE PUSH32 0x4F776E61626C653A2063616C6C6572206973206E6F7420746865206F776E6572 PUSH1 0x44 DUP3 ADD MSTORE PUSH1 0x64 ADD PUSH1 0x40 MLOAD DUP1 SWAP2 SUB SWAP1 REVERT JUMPDEST DUP1 MLOAD PUSH3 0x1A3 SWAP1 PUSH1 0xB SWAP1 PUSH1 0x20 DUP5 ADD SWAP1 PUSH3 0x1A7 JUMP JUMPDEST POP POP JUMP JUMPDEST DUP3 DUP1 SLOAD PUSH3 0x1B5 SWAP1 PUSH3 0x38D JUMP JUMPDEST SWAP1 PUSH1 0x0 MSTORE PUSH1 0x20 PUSH1 0x0 KECCAK256 SWAP1 PUSH1 0x1F ADD PUSH1 0x20 SWAP1 DIV DUP2 ADD SWAP3 DUP3 PUSH3 0x1D9 JUMPI PUSH1 0x0 DUP6 SSTORE PUSH3 0x224 JUMP JUMPDEST DUP3 PUSH1 0x1F LT PUSH3 0x1F4 JUMPI DUP1 MLOAD PUSH1 0xFF NOT AND DUP4 DUP1 ADD OR DUP6 SSTORE PUSH3 0x224 JUMP JUMPDEST DUP3 DUP1 ADD PUSH1 0x1 ADD DUP6 SSTORE DUP3 ISZERO PUSH3 0x224 JUMPI SWAP2 DUP3 ADD JUMPDEST DUP3 DUP2 GT ISZERO PUSH3 0x224 JUMPI DUP3 MLOAD DUP3 SSTORE SWAP2 PUSH1 0x20 ADD SWAP2 SWAP1 PUSH1 0x1 ADD SWAP1 PUSH3 0x207 JUMP JUMPDEST POP PUSH3 0x232 SWAP3 SWAP2 POP PUSH3 0x236 JUMP JUMPDEST POP SWAP1 JUMP JUMPDEST JUMPDEST DUP1 DUP3 GT ISZERO PUSH3 0x232 JUMPI PUSH1 0x0 DUP2 SSTORE PUSH1 0x1 ADD PUSH3 0x237 JUMP JUMPDEST PUSH1 0x0 DUP3 PUSH1 0x1F DUP4 ADD SLT PUSH3 0x25E JUMPI DUP1 DUP2 REVERT JUMPDEST DUP2 MLOAD PUSH1 0x1 PUSH1 0x1 PUSH1 0x40 SHL SUB DUP1 DUP3 GT ISZERO PUSH3 0x27B JUMPI PUSH3 0x27B PUSH3 0x3CA JUMP JUMPDEST PUSH1 0x40 MLOAD PUSH1 0x1F DUP4 ADD PUSH1 0x1F NOT SWAP1 DUP2 AND PUSH1 0x3F ADD AND DUP2 ADD SWAP1 DUP3 DUP3 GT DUP2 DUP4 LT OR ISZERO PUSH3 0x2A6 JUMPI PUSH3 0x2A6 PUSH3 0x3CA JUMP JUMPDEST DUP2 PUSH1 0x40 MSTORE DUP4 DUP2 MSTORE PUSH1 0x20 SWAP3 POP DUP7 DUP4 DUP6 DUP9 ADD ADD GT ISZERO PUSH3 0x2C2 JUMPI DUP5 DUP6 REVERT JUMPDEST DUP5 SWAP2 POP JUMPDEST DUP4 DUP3 LT ISZERO PUSH3 0x2E5 JUMPI DUP6 DUP3 ADD DUP4 ADD MLOAD DUP2 DUP4 ADD DUP5 ADD MSTORE SWAP1 DUP3 ADD SWAP1 PUSH3 0x2C6 JUMP JUMPDEST DUP4 DUP3 GT ISZERO PUSH3 0x2F6 JUMPI DUP5 DUP4 DUP6 DUP4 ADD ADD MSTORE JUMPDEST SWAP7 SWAP6 POP POP POP POP POP POP JUMP JUMPDEST PUSH1 0x0 DUP1 PUSH1 0x0 PUSH1 0x60 DUP5 DUP7 SUB SLT ISZERO PUSH3 0x315 JUMPI DUP3 DUP4 REVERT JUMPDEST DUP4 MLOAD PUSH1 0x1 PUSH1 0x1 PUSH1 0x40 SHL SUB DUP1 DUP3 GT ISZERO PUSH3 0x32C JUMPI DUP5 DUP6 REVERT JUMPDEST PUSH3 0x33A DUP8 DUP4 DUP9 ADD PUSH3 0x24D JUMP JUMPDEST SWAP5 POP PUSH1 0x20 DUP7 ADD MLOAD SWAP2 POP DUP1 DUP3 GT ISZERO PUSH3 0x350 JUMPI DUP4 DUP5 REVERT JUMPDEST PUSH3 0x35E DUP8 DUP4 DUP9 ADD PUSH3 0x24D JUMP JUMPDEST SWAP4 POP PUSH1 0x40 DUP7 ADD MLOAD SWAP2 POP DUP1 DUP3 GT ISZERO PUSH3 0x374 JUMPI DUP3 DUP4 REVERT JUMPDEST POP PUSH3 0x383 DUP7 DUP3 DUP8 ADD PUSH3 0x24D JUMP JUMPDEST SWAP2 POP POP SWAP3 POP SWAP3 POP SWAP3 JUMP JUMPDEST PUSH1 0x2 DUP2 DIV PUSH1 0x1 DUP3 AND DUP1 PUSH3 0x3A2 JUMPI PUSH1 0x7F DUP3 AND SWAP2 POP JUMPDEST PUSH1 0x20 DUP3 LT DUP2 EQ ISZERO PUSH3 0x3C4 JUMPI PUSH4 0x4E487B71 PUSH1 0xE0 SHL PUSH1 0x0 MSTORE PUSH1 0x22 PUSH1 0x4 MSTORE PUSH1 0x24 PUSH1 0x0 REVERT JUMPDEST POP SWAP2 SWAP1 POP JUMP JUMPDEST PUSH4 0x4E487B71 PUSH1 0xE0 SHL PUSH1 0x0 MSTORE PUSH1 0x41 PUSH1 0x4 MSTORE PUSH1 0x24 PUSH1 0x0 REVERT JUMPDEST PUSH2 0x229A DUP1 PUSH3 0x3F0 PUSH1 0x0 CODECOPY PUSH1 0x0 RETURN INVALID PUSH1 0x80 PUSH1 0x40 MSTORE PUSH1 0x4 CALLDATASIZE LT PUSH2 0x1E3 JUMPI PUSH1 0x0 CALLDATALOAD PUSH1 0xE0 SHR DUP1 PUSH4 0x5C975ABB GT PUSH2 0x102 JUMPI DUP1 PUSH4 0xA22CB465 GT PUSH2 0x95 JUMPI DUP1 PUSH4 0xD5ABEB01 GT PUSH2 0x64 JUMPI DUP1 PUSH4 0xD5ABEB01 EQ PUSH2 0x547 JUMPI DUP1 PUSH4 0xDA3EF23F EQ PUSH2 0x55D JUMPI DUP1 PUSH4 0xE985E9C5 EQ PUSH2 0x57D JUMPI DUP1 PUSH4 0xF2FDE38B EQ PUSH2 0x5C6 JUMPI PUSH2 0x1E3 JUMP JUMPDEST DUP1 PUSH4 0xA22CB465 EQ PUSH2 0x4D2 JUMPI DUP1 PUSH4 0xB88D4FDE EQ PUSH2 0x4F2 JUMPI DUP1 PUSH4 0xC6682862 EQ PUSH2 0x512 JUMPI DUP1 PUSH4 0xC87B56DD EQ PUSH2 0x527 JUMPI PUSH2 0x1E3 JUMP JUMPDEST DUP1 PUSH4 0x7F00C7A6 GT PUSH2 0xD1 JUMPI DUP1 PUSH4 0x7F00C7A6 EQ PUSH2 0x46C JUMPI DUP1 PUSH4 0x8DA5CB5B EQ PUSH2 0x48C JUMPI DUP1 PUSH4 0x95D89B41 EQ PUSH2 0x4AA JUMPI DUP1 PUSH4 0xA0712D68 EQ PUSH2 0x4BF JUMPI PUSH2 0x1E3 JUMP JUMPDEST DUP1 PUSH4 0x5C975ABB EQ PUSH2 0x3FD JUMPI DUP1 PUSH4 0x6352211E EQ PUSH2 0x417 JUMPI DUP1 PUSH4 0x70A08231 EQ PUSH2 0x437 JUMPI DUP1 PUSH4 0x715018A6 EQ PUSH2 0x457 JUMPI PUSH2 0x1E3 JUMP JUMPDEST DUP1 PUSH4 0x23B872DD GT PUSH2 0x17A JUMPI DUP1 PUSH4 0x438B6300 GT PUSH2 0x149 JUMPI DUP1 PUSH4 0x438B6300 EQ PUSH2 0x370 JUMPI DUP1 PUSH4 0x44A0D68A EQ PUSH2 0x39D JUMPI DUP1 PUSH4 0x4F6CCCE7 EQ PUSH2 0x3BD JUMPI DUP1 PUSH4 0x55F804B3 EQ PUSH2 0x3DD JUMPI PUSH2 0x1E3 JUMP JUMPDEST DUP1 PUSH4 0x23B872DD EQ PUSH2 0x308 JUMPI DUP1 PUSH4 0x2F745C59 EQ PUSH2 0x328 JUMPI DUP1 PUSH4 0x3CCFD60B EQ PUSH2 0x348 JUMPI DUP1 PUSH4 0x42842E0E EQ PUSH2 0x350 JUMPI PUSH2 0x1E3 JUMP JUMPDEST DUP1 PUSH4 0x95EA7B3 GT PUSH2 0x1B6 JUMPI DUP1 PUSH4 0x95EA7B3 EQ PUSH2 0x299 JUMPI DUP1 PUSH4 0x13FAEDE6 EQ PUSH2 0x2B9 JUMPI DUP1 PUSH4 0x18160DDD EQ PUSH2 0x2DD JUMPI DUP1 PUSH4 0x239C70AE EQ PUSH2 0x2F2 JUMPI PUSH2 0x1E3 JUMP JUMPDEST DUP1 PUSH4 0x1FFC9A7 EQ PUSH2 0x1E8 JUMPI DUP1 PUSH4 0x2329A29 EQ PUSH2 0x21D JUMPI DUP1 PUSH4 0x6FDDE03 EQ PUSH2 0x23F JUMPI DUP1 PUSH4 0x81812FC EQ PUSH2 0x261 JUMPI JUMPDEST PUSH1 0x0 DUP1 REVERT JUMPDEST CALLVALUE DUP1 ISZERO PUSH2 0x1F4 JUMPI PUSH1 0x0 DUP1 REVERT JUMPDEST POP PUSH2 0x208 PUSH2 0x203 CALLDATASIZE PUSH1 0x4 PUSH2 0x1E24 JUMP JUMPDEST PUSH2 0x5E6 JUMP JUMPDEST PUSH1 0x40 MLOAD SWAP1 ISZERO ISZERO DUP2 MSTORE PUSH1 0x20 ADD JUMPDEST PUSH1 0x40 MLOAD DUP1 SWAP2 SUB SWAP1 RETURN JUMPDEST CALLVALUE DUP1 ISZERO PUSH2 0x229 JUMPI PUSH1 0x0 DUP1 REVERT JUMPDEST POP PUSH2 0x23D PUSH2 0x238 CALLDATASIZE PUSH1 0x4 PUSH2 0x1E0A JUMP JUMPDEST PUSH2 0x613 JUMP JUMPDEST STOP JUMPDEST CALLVALUE DUP1 ISZERO PUSH2 0x24B JUMPI PUSH1 0x0 DUP1 REVERT JUMPDEST POP PUSH2 0x254 PUSH2 0x659 JUMP JUMPDEST PUSH1 0x40 MLOAD PUSH2 0x214 SWAP2 SWAP1 PUSH2 0x2029 JUMP JUMPDEST CALLVALUE DUP1 ISZERO PUSH2 0x26D JUMPI PUSH1 0x0 DUP1 REVERT JUMPDEST POP PUSH2 0x281 PUSH2 0x27C CALLDATASIZE PUSH1 0x4 PUSH2 0x1EA2 JUMP JUMPDEST PUSH2 0x6EB JUMP JUMPDEST PUSH1 0x40 MLOAD PUSH1 0x1 PUSH1 0x1 PUSH1 0xA0 SHL SUB SWAP1 SWAP2 AND DUP2 MSTORE PUSH1 0x20 ADD PUSH2 0x214 JUMP JUMPDEST CALLVALUE DUP1 ISZERO PUSH2 0x2A5 JUMPI PUSH1 0x0 DUP1 REVERT JUMPDEST POP PUSH2 0x23D PUSH2 0x2B4 CALLDATASIZE PUSH1 0x4 PUSH2 0x1DE1 JUMP JUMPDEST PUSH2 0x780 JUMP JUMPDEST CALLVALUE DUP1 ISZERO PUSH2 0x2C5 JUMPI PUSH1 0x0 DUP1 REVERT JUMPDEST POP PUSH2 0x2CF PUSH1 0xD SLOAD DUP2 JUMP JUMPDEST PUSH1 0x40 MLOAD SWAP1 DUP2 MSTORE PUSH1 0x20 ADD PUSH2 0x214 JUMP JUMPDEST CALLVALUE DUP1 ISZERO PUSH2 0x2E9 JUMPI PUSH1 0x0 DUP1 REVERT JUMPDEST POP PUSH1 0x8 SLOAD PUSH2 0x2CF JUMP JUMPDEST CALLVALUE DUP1 ISZERO PUSH2 0x2FE JUMPI PUSH1 0x0 DUP1 REVERT JUMPDEST POP PUSH2 0x2CF PUSH1 0xF SLOAD DUP2 JUMP JUMPDEST CALLVALUE DUP1 ISZERO PUSH2 0x314 JUMPI PUSH1 0x0 DUP1 REVERT JUMPDEST POP PUSH2 0x23D PUSH2 0x323 CALLDATASIZE PUSH1 0x4 PUSH2 0x1D04 JUMP JUMPDEST PUSH2 0x896 JUMP JUMPDEST CALLVALUE DUP1 ISZERO PUSH2 0x334 JUMPI PUSH1 0x0 DUP1 REVERT JUMPDEST POP PUSH2 0x2CF PUSH2 0x343 CALLDATASIZE PUSH1 0x4 PUSH2 0x1DE1 JUMP JUMPDEST PUSH2 0x8C7 JUMP JUMPDEST PUSH2 0x23D PUSH2 0x95D JUMP JUMPDEST CALLVALUE DUP1 ISZERO PUSH2 0x35C JUMPI PUSH1 0x0 DUP1 REVERT JUMPDEST POP PUSH2 0x23D PUSH2 0x36B CALLDATASIZE PUSH1 0x4 PUSH2 0x1D04 JUMP JUMPDEST PUSH2 0x9FB JUMP JUMPDEST CALLVALUE DUP1 ISZERO PUSH2 0x37C JUMPI PUSH1 0x0 DUP1 REVERT JUMPDEST POP PUSH2 0x390 PUSH2 0x38B CALLDATASIZE PUSH1 0x4 PUSH2 0x1CB8 JUMP JUMPDEST PUSH2 0xA16 JUMP JUMPDEST PUSH1 0x40 MLOAD PUSH2 0x214 SWAP2 SWAP1 PUSH2 0x1FE5 JUMP JUMPDEST CALLVALUE DUP1 ISZERO PUSH2 0x3A9 JUMPI PUSH1 0x0 DUP1 REVERT JUMPDEST POP PUSH2 0x23D PUSH2 0x3B8 CALLDATASIZE PUSH1 0x4 PUSH2 0x1EA2 JUMP JUMPDEST PUSH2 0xAD4 JUMP JUMPDEST CALLVALUE DUP1 ISZERO PUSH2 0x3C9 JUMPI PUSH1 0x0 DUP1 REVERT JUMPDEST POP PUSH2 0x2CF PUSH2 0x3D8 CALLDATASIZE PUSH1 0x4 PUSH2 0x1EA2 JUMP JUMPDEST PUSH2 0xB03 JUMP JUMPDEST CALLVALUE DUP1 ISZERO PUSH2 0x3E9 JUMPI PUSH1 0x0 DUP1 REVERT JUMPDEST POP PUSH2 0x23D PUSH2 0x3F8 CALLDATASIZE PUSH1 0x4 PUSH2 0x1E5C JUMP JUMPDEST PUSH2 0xBA4 JUMP JUMPDEST CALLVALUE DUP1 ISZERO PUSH2 0x409 JUMPI PUSH1 0x0 DUP1 REVERT JUMPDEST POP PUSH1 0x10 SLOAD PUSH2 0x208 SWAP1 PUSH1 0xFF AND DUP2 JUMP JUMPDEST CALLVALUE DUP1 ISZERO PUSH2 0x423 JUMPI PUSH1 0x0 DUP1 REVERT JUMPDEST POP PUSH2 0x281 PUSH2 0x432 CALLDATASIZE PUSH1 0x4 PUSH2 0x1EA2 JUMP JUMPDEST PUSH2 0xBE5 JUMP JUMPDEST CALLVALUE DUP1 ISZERO PUSH2 0x443 JUMPI PUSH1 0x0 DUP1 REVERT JUMPDEST POP PUSH2 0x2CF PUSH2 0x452 CALLDATASIZE PUSH1 0x4 PUSH2 0x1CB8 JUMP JUMPDEST PUSH2 0xC5C JUMP JUMPDEST CALLVALUE DUP1 ISZERO PUSH2 0x463 JUMPI PUSH1 0x0 DUP1 REVERT JUMPDEST POP PUSH2 0x23D PUSH2 0xCE3 JUMP JUMPDEST CALLVALUE DUP1 ISZERO PUSH2 0x478 JUMPI PUSH1 0x0 DUP1 REVERT JUMPDEST POP PUSH2 0x23D PUSH2 0x487 CALLDATASIZE PUSH1 0x4 PUSH2 0x1EA2 JUMP JUMPDEST PUSH2 0xD19 JUMP JUMPDEST CALLVALUE DUP1 ISZERO PUSH2 0x498 JUMPI PUSH1 0x0 DUP1 REVERT JUMPDEST POP PUSH1 0xA SLOAD PUSH1 0x1 PUSH1 0x1 PUSH1 0xA0 SHL SUB AND PUSH2 0x281 JUMP JUMPDEST CALLVALUE DUP1 ISZERO PUSH2 0x4B6 JUMPI PUSH1 0x0 DUP1 REVERT JUMPDEST POP PUSH2 0x254 PUSH2 0xD48 JUMP JUMPDEST PUSH2 0x23D PUSH2 0x4CD CALLDATASIZE PUSH1 0x4 PUSH2 0x1EA2 JUMP JUMPDEST PUSH2 0xD57 JUMP JUMPDEST CALLVALUE DUP1 ISZERO PUSH2 0x4DE JUMPI PUSH1 0x0 DUP1 REVERT JUMPDEST POP PUSH2 0x23D PUSH2 0x4ED CALLDATASIZE PUSH1 0x4 PUSH2 0x1DB8 JUMP JUMPDEST PUSH2 0xE04 JUMP JUMPDEST CALLVALUE DUP1 ISZERO PUSH2 0x4FE JUMPI PUSH1 0x0 DUP1 REVERT JUMPDEST POP PUSH2 0x23D PUSH2 0x50D CALLDATASIZE PUSH1 0x4 PUSH2 0x1D3F JUMP JUMPDEST PUSH2 0xE0F JUMP JUMPDEST CALLVALUE DUP1 ISZERO PUSH2 0x51E JUMPI PUSH1 0x0 DUP1 REVERT JUMPDEST POP PUSH2 0x254 PUSH2 0xE47 JUMP JUMPDEST CALLVALUE DUP1 ISZERO PUSH2 0x533 JUMPI PUSH1 0x0 DUP1 REVERT JUMPDEST POP PUSH2 0x254 PUSH2 0x542 CALLDATASIZE PUSH1 0x4 PUSH2 0x1EA2 JUMP JUMPDEST PUSH2 0xED5 JUMP JUMPDEST CALLVALUE DUP1 ISZERO PUSH2 0x553 JUMPI PUSH1 0x0 DUP1 REVERT JUMPDEST POP PUSH2 0x2CF PUSH1 0xE SLOAD DUP2 JUMP JUMPDEST CALLVALUE DUP1 ISZERO PUSH2 0x569 JUMPI PUSH1 0x0 DUP1 REVERT JUMPDEST POP PUSH2 0x23D PUSH2 0x578 CALLDATASIZE PUSH1 0x4 PUSH2 0x1E5C JUMP JUMPDEST PUSH2 0xFB3 JUMP JUMPDEST CALLVALUE DUP1 ISZERO PUSH2 0x589 JUMPI PUSH1 0x0 DUP1 REVERT JUMPDEST POP PUSH2 0x208 PUSH2 0x598 CALLDATASIZE PUSH1 0x4 PUSH2 0x1CD2 JUMP JUMPDEST PUSH1 0x1 PUSH1 0x1 PUSH1 0xA0 SHL SUB SWAP2 DUP3 AND PUSH1 0x0 SWAP1 DUP2 MSTORE PUSH1 0x5 PUSH1 0x20 SWAP1 DUP2 MSTORE PUSH1 0x40 DUP1 DUP4 KECCAK256 SWAP4 SWAP1 SWAP5 AND DUP3 MSTORE SWAP2 SWAP1 SWAP2 MSTORE KECCAK256 SLOAD PUSH1 0xFF AND SWAP1 JUMP JUMPDEST CALLVALUE DUP1 ISZERO PUSH2 0x5D2 JUMPI PUSH1 0x0 DUP1 REVERT JUMPDEST POP PUSH2 0x23D PUSH2 0x5E1 CALLDATASIZE PUSH1 0x4 PUSH2 0x1CB8 JUMP JUMPDEST PUSH2 0xFF0 JUMP JUMPDEST PUSH1 0x0 PUSH1 0x1 PUSH1 0x1 PUSH1 0xE0 SHL SUB NOT DUP3 AND PUSH4 0x780E9D63 PUSH1 0xE0 SHL EQ DUP1 PUSH2 0x60B JUMPI POP PUSH2 0x60B DUP3 PUSH2 0x1088 JUMP JUMPDEST SWAP1 POP JUMPDEST SWAP2 SWAP1 POP JUMP JUMPDEST PUSH1 0xA SLOAD PUSH1 0x1 PUSH1 0x1 PUSH1 0xA0 SHL SUB AND CALLER EQ PUSH2 0x646 JUMPI PUSH1 0x40 MLOAD PUSH3 0x461BCD PUSH1 0xE5 SHL DUP2 MSTORE PUSH1 0x4 ADD PUSH2 0x63D SWAP1 PUSH2 0x208E JUMP JUMPDEST PUSH1 0x40 MLOAD DUP1 SWAP2 SUB SWAP1 REVERT JUMPDEST PUSH1 0x10 DUP1 SLOAD PUSH1 0xFF NOT AND SWAP2 ISZERO ISZERO SWAP2 SWAP1 SWAP2 OR SWAP1 SSTORE JUMP JUMPDEST PUSH1 0x60 PUSH1 0x0 DUP1 SLOAD PUSH2 0x668 SWAP1 PUSH2 0x21A2 JUMP JUMPDEST DUP1 PUSH1 0x1F ADD PUSH1 0x20 DUP1 SWAP2 DIV MUL PUSH1 0x20 ADD PUSH1 0x40 MLOAD SWAP1 DUP2 ADD PUSH1 0x40 MSTORE DUP1 SWAP3 SWAP2 SWAP1 DUP2 DUP2 MSTORE PUSH1 0x20 ADD DUP3 DUP1 SLOAD PUSH2 0x694 SWAP1 PUSH2 0x21A2 JUMP JUMPDEST DUP1 ISZERO PUSH2 0x6E1 JUMPI DUP1 PUSH1 0x1F LT PUSH2 0x6B6 JUMPI PUSH2 0x100 DUP1 DUP4 SLOAD DIV MUL DUP4 MSTORE SWAP2 PUSH1 0x20 ADD SWAP2 PUSH2 0x6E1 JUMP JUMPDEST DUP3 ADD SWAP2 SWAP1 PUSH1 0x0 MSTORE PUSH1 0x20 PUSH1 0x0 KECCAK256 SWAP1 JUMPDEST DUP2 SLOAD DUP2 MSTORE SWAP1 PUSH1 0x1 ADD SWAP1 PUSH1 0x20 ADD DUP1 DUP4 GT PUSH2 0x6C4 JUMPI DUP3 SWAP1 SUB PUSH1 0x1F AND DUP3 ADD SWAP2 JUMPDEST POP POP POP POP POP SWAP1 POP SWAP1 JUMP JUMPDEST PUSH1 0x0 DUP2 DUP2 MSTORE PUSH1 0x2 PUSH1 0x20 MSTORE PUSH1 0x40 DUP2 KECCAK256 SLOAD PUSH1 0x1 PUSH1 0x1 PUSH1 0xA0 SHL SUB AND PUSH2 0x764 JUMPI PUSH1 0x40 MLOAD PUSH3 0x461BCD PUSH1 0xE5 SHL DUP2 MSTORE PUSH1 0x20 PUSH1 0x4 DUP3 ADD MSTORE PUSH1 0x2C PUSH1 0x24 DUP3 ADD MSTORE PUSH32 0x4552433732313A20617070726F76656420717565727920666F72206E6F6E6578 PUSH1 0x44 DUP3 ADD MSTORE PUSH12 0x34B9BA32B73A103A37B5B2B7 PUSH1 0xA1 SHL PUSH1 0x64 DUP3 ADD MSTORE PUSH1 0x84 ADD PUSH2 0x63D JUMP JUMPDEST POP PUSH1 0x0 SWAP1 DUP2 MSTORE PUSH1 0x4 PUSH1 0x20 MSTORE PUSH1 0x40 SWAP1 KECCAK256 SLOAD PUSH1 0x1 PUSH1 0x1 PUSH1 0xA0 SHL SUB AND SWAP1 JUMP JUMPDEST PUSH1 0x0 PUSH2 0x78B DUP3 PUSH2 0xBE5 JUMP JUMPDEST SWAP1 POP DUP1 PUSH1 0x1 PUSH1 0x1 PUSH1 0xA0 SHL SUB AND DUP4 PUSH1 0x1 PUSH1 0x1 PUSH1 0xA0 SHL SUB AND EQ ISZERO PUSH2 0x7F9 JUMPI PUSH1 0x40 MLOAD PUSH3 0x461BCD PUSH1 0xE5 SHL DUP2 MSTORE PUSH1 0x20 PUSH1 0x4 DUP3 ADD MSTORE PUSH1 0x21 PUSH1 0x24 DUP3 ADD MSTORE PUSH32 0x4552433732313A20617070726F76616C20746F2063757272656E74206F776E65 PUSH1 0x44 DUP3 ADD MSTORE PUSH1 0x39 PUSH1 0xF9 SHL PUSH1 0x64 DUP3 ADD MSTORE PUSH1 0x84 ADD PUSH2 0x63D JUMP JUMPDEST CALLER PUSH1 0x1 PUSH1 0x1 PUSH1 0xA0 SHL SUB DUP3 AND EQ DUP1 PUSH2 0x815 JUMPI POP PUSH2 0x815 DUP2 CALLER PUSH2 0x598 JUMP JUMPDEST PUSH2 0x887 JUMPI PUSH1 0x40 MLOAD PUSH3 0x461BCD PUSH1 0xE5 SHL DUP2 MSTORE PUSH1 0x20 PUSH1 0x4 DUP3 ADD MSTORE PUSH1 0x38 PUSH1 0x24 DUP3 ADD MSTORE PUSH32 0x4552433732313A20617070726F76652063616C6C6572206973206E6F74206F77 PUSH1 0x44 DUP3 ADD MSTORE PUSH32 0x6E6572206E6F7220617070726F76656420666F7220616C6C0000000000000000 PUSH1 0x64 DUP3 ADD MSTORE PUSH1 0x84 ADD PUSH2 0x63D JUMP JUMPDEST PUSH2 0x891 DUP4 DUP4 PUSH2 0x10D8 JUMP JUMPDEST POP POP POP JUMP JUMPDEST PUSH2 0x8A0 CALLER DUP3 PUSH2 0x1146 JUMP JUMPDEST PUSH2 0x8BC JUMPI PUSH1 0x40 MLOAD PUSH3 0x461BCD PUSH1 0xE5 SHL DUP2 MSTORE PUSH1 0x4 ADD PUSH2 0x63D SWAP1 PUSH2 0x20C3 JUMP JUMPDEST PUSH2 0x891 DUP4 DUP4 DUP4 PUSH2 0x123D JUMP JUMPDEST PUSH1 0x0 PUSH2 0x8D2 DUP4 PUSH2 0xC5C JUMP JUMPDEST DUP3 LT PUSH2 0x934 JUMPI PUSH1 0x40 MLOAD PUSH3 0x461BCD PUSH1 0xE5 SHL DUP2 MSTORE PUSH1 0x20 PUSH1 0x4 DUP3 ADD MSTORE PUSH1 0x2B PUSH1 0x24 DUP3 ADD MSTORE PUSH32 0x455243373231456E756D657261626C653A206F776E657220696E646578206F75 PUSH1 0x44 DUP3 ADD MSTORE PUSH11 0x74206F6620626F756E6473 PUSH1 0xA8 SHL PUSH1 0x64 DUP3 ADD MSTORE PUSH1 0x84 ADD PUSH2 0x63D JUMP JUMPDEST POP PUSH1 0x1 PUSH1 0x1 PUSH1 0xA0 SHL SUB SWAP2 SWAP1 SWAP2 AND PUSH1 0x0 SWAP1 DUP2 MSTORE PUSH1 0x6 PUSH1 0x20 SWAP1 DUP2 MSTORE PUSH1 0x40 DUP1 DUP4 KECCAK256 SWAP4 DUP4 MSTORE SWAP3 SWAP1 MSTORE KECCAK256 SLOAD SWAP1 JUMP JUMPDEST PUSH1 0xA SLOAD PUSH1 0x1 PUSH1 0x1 PUSH1 0xA0 SHL SUB AND CALLER EQ PUSH2 0x987 JUMPI PUSH1 0x40 MLOAD PUSH3 0x461BCD PUSH1 0xE5 SHL DUP2 MSTORE PUSH1 0x4 ADD PUSH2 0x63D SWAP1 PUSH2 0x208E JUMP JUMPDEST PUSH1 0x0 PUSH2 0x99B PUSH1 0xA SLOAD PUSH1 0x1 PUSH1 0x1 PUSH1 0xA0 SHL SUB AND SWAP1 JUMP JUMPDEST PUSH1 0x1 PUSH1 0x1 PUSH1 0xA0 SHL SUB AND SELFBALANCE PUSH1 0x40 MLOAD PUSH1 0x0 PUSH1 0x40 MLOAD DUP1 DUP4 SUB DUP2 DUP6 DUP8 GAS CALL SWAP3 POP POP POP RETURNDATASIZE DUP1 PUSH1 0x0 DUP2 EQ PUSH2 0x9E5 JUMPI PUSH1 0x40 MLOAD SWAP2 POP PUSH1 0x1F NOT PUSH1 0x3F RETURNDATASIZE ADD AND DUP3 ADD PUSH1 0x40 MSTORE RETURNDATASIZE DUP3 MSTORE RETURNDATASIZE PUSH1 0x0 PUSH1 0x20 DUP5 ADD RETURNDATACOPY PUSH2 0x9EA JUMP JUMPDEST PUSH1 0x60 SWAP2 POP JUMPDEST POP POP SWAP1 POP DUP1 PUSH2 0x9F8 JUMPI PUSH1 0x0 DUP1 REVERT JUMPDEST POP JUMP JUMPDEST PUSH2 0x891 DUP4 DUP4 DUP4 PUSH1 0x40 MLOAD DUP1 PUSH1 0x20 ADD PUSH1 0x40 MSTORE DUP1 PUSH1 0x0 DUP2 MSTORE POP PUSH2 0xE0F JUMP JUMPDEST PUSH1 0x60 PUSH1 0x0 PUSH2 0xA23 DUP4 PUSH2 0xC5C JUMP JUMPDEST SWAP1 POP PUSH1 0x0 DUP2 PUSH8 0xFFFFFFFFFFFFFFFF DUP2 GT ISZERO PUSH2 0xA4E JUMPI PUSH4 0x4E487B71 PUSH1 0xE0 SHL PUSH1 0x0 MSTORE PUSH1 0x41 PUSH1 0x4 MSTORE PUSH1 0x24 PUSH1 0x0 REVERT JUMPDEST PUSH1 0x40 MLOAD SWAP1 DUP1 DUP3 MSTORE DUP1 PUSH1 0x20 MUL PUSH1 0x20 ADD DUP3 ADD PUSH1 0x40 MSTORE DUP1 ISZERO PUSH2 0xA77 JUMPI DUP2 PUSH1 0x20 ADD PUSH1 0x20 DUP3 MUL DUP1 CALLDATASIZE DUP4 CALLDATACOPY ADD SWAP1 POP JUMPDEST POP SWAP1 POP PUSH1 0x0 JUMPDEST DUP3 DUP2 LT ISZERO PUSH2 0xACC JUMPI PUSH2 0xA8F DUP6 DUP3 PUSH2 0x8C7 JUMP JUMPDEST DUP3 DUP3 DUP2 MLOAD DUP2 LT PUSH2 0xAAF JUMPI PUSH4 0x4E487B71 PUSH1 0xE0 SHL PUSH1 0x0 MSTORE PUSH1 0x32 PUSH1 0x4 MSTORE PUSH1 0x24 PUSH1 0x0 REVERT JUMPDEST PUSH1 0x20 SWAP1 DUP2 MUL SWAP2 SWAP1 SWAP2 ADD ADD MSTORE DUP1 PUSH2 0xAC4 DUP2 PUSH2 0x21DD JUMP JUMPDEST SWAP2 POP POP PUSH2 0xA7D JUMP JUMPDEST POP SWAP4 SWAP3 POP POP POP JUMP JUMPDEST PUSH1 0xA SLOAD PUSH1 0x1 PUSH1 0x1 PUSH1 0xA0 SHL SUB AND CALLER EQ PUSH2 0xAFE JUMPI PUSH1 0x40 MLOAD PUSH3 0x461BCD PUSH1 0xE5 SHL DUP2 MSTORE PUSH1 0x4 ADD PUSH2 0x63D SWAP1 PUSH2 0x208E JUMP JUMPDEST PUSH1 0xD SSTORE JUMP JUMPDEST PUSH1 0x0 PUSH2 0xB0E PUSH1 0x8 SLOAD SWAP1 JUMP JUMPDEST DUP3 LT PUSH2 0xB71 JUMPI PUSH1 0x40 MLOAD PUSH3 0x461BCD PUSH1 0xE5 SHL DUP2 MSTORE PUSH1 0x20 PUSH1 0x4 DUP3 ADD MSTORE PUSH1 0x2C PUSH1 0x24 DUP3 ADD MSTORE PUSH32 0x455243373231456E756D657261626C653A20676C6F62616C20696E646578206F PUSH1 0x44 DUP3 ADD MSTORE PUSH12 0x7574206F6620626F756E6473 PUSH1 0xA0 SHL PUSH1 0x64 DUP3 ADD MSTORE PUSH1 0x84 ADD PUSH2 0x63D JUMP JUMPDEST PUSH1 0x8 DUP3 DUP2 SLOAD DUP2 LT PUSH2 0xB92 JUMPI PUSH4 0x4E487B71 PUSH1 0xE0 SHL PUSH1 0x0 MSTORE PUSH1 0x32 PUSH1 0x4 MSTORE PUSH1 0x24 PUSH1 0x0 REVERT JUMPDEST SWAP1 PUSH1 0x0 MSTORE PUSH1 0x20 PUSH1 0x0 KECCAK256 ADD SLOAD SWAP1 POP SWAP2 SWAP1 POP JUMP JUMPDEST PUSH1 0xA SLOAD PUSH1 0x1 PUSH1 0x1 PUSH1 0xA0 SHL SUB AND CALLER EQ PUSH2 0xBCE JUMPI PUSH1 0x40 MLOAD PUSH3 0x461BCD PUSH1 0xE5 SHL DUP2 MSTORE PUSH1 0x4 ADD PUSH2 0x63D SWAP1 PUSH2 0x208E JUMP JUMPDEST DUP1 MLOAD PUSH2 0xBE1 SWAP1 PUSH1 0xB SWAP1 PUSH1 0x20 DUP5 ADD SWAP1 PUSH2 0x1B82 JUMP JUMPDEST POP POP JUMP JUMPDEST PUSH1 0x0 DUP2 DUP2 MSTORE PUSH1 0x2 PUSH1 0x20 MSTORE PUSH1 0x40 DUP2 KECCAK256 SLOAD PUSH1 0x1 PUSH1 0x1 PUSH1 0xA0 SHL SUB AND DUP1 PUSH2 0x60B JUMPI PUSH1 0x40 MLOAD PUSH3 0x461BCD PUSH1 0xE5 SHL DUP2 MSTORE PUSH1 0x20 PUSH1 0x4 DUP3 ADD MSTORE PUSH1 0x29 PUSH1 0x24 DUP3 ADD MSTORE PUSH32 0x4552433732313A206F776E657220717565727920666F72206E6F6E6578697374 PUSH1 0x44 DUP3 ADD MSTORE PUSH9 0x32B73A103A37B5B2B7 PUSH1 0xB9 SHL PUSH1 0x64 DUP3 ADD MSTORE PUSH1 0x84 ADD PUSH2 0x63D JUMP JUMPDEST PUSH1 0x0 PUSH1 0x1 PUSH1 0x1 PUSH1 0xA0 SHL SUB DUP3 AND PUSH2 0xCC7 JUMPI PUSH1 0x40 MLOAD PUSH3 0x461BCD PUSH1 0xE5 SHL DUP2 MSTORE PUSH1 0x20 PUSH1 0x4 DUP3 ADD MSTORE PUSH1 0x2A PUSH1 0x24 DUP3 ADD MSTORE PUSH32 0x4552433732313A2062616C616E636520717565727920666F7220746865207A65 PUSH1 0x44 DUP3 ADD MSTORE PUSH10 0x726F2061646472657373 PUSH1 0xB0 SHL PUSH1 0x64 DUP3 ADD MSTORE PUSH1 0x84 ADD PUSH2 0x63D JUMP JUMPDEST POP PUSH1 0x1 PUSH1 0x1 PUSH1 0xA0 SHL SUB AND PUSH1 0x0 SWAP1 DUP2 MSTORE PUSH1 0x3 PUSH1 0x20 MSTORE PUSH1 0x40 SWAP1 KECCAK256 SLOAD SWAP1 JUMP JUMPDEST PUSH1 0xA SLOAD PUSH1 0x1 PUSH1 0x1 PUSH1 0xA0 SHL SUB AND CALLER EQ PUSH2 0xD0D JUMPI PUSH1 0x40 MLOAD PUSH3 0x461BCD PUSH1 0xE5 SHL DUP2 MSTORE PUSH1 0x4 ADD PUSH2 0x63D SWAP1 PUSH2 0x208E JUMP JUMPDEST PUSH2 0xD17 PUSH1 0x0 PUSH2 0x13E4 JUMP JUMPDEST JUMP JUMPDEST PUSH1 0xA SLOAD PUSH1 0x1 PUSH1 0x1 PUSH1 0xA0 SHL SUB AND CALLER EQ PUSH2 0xD43 JUMPI PUSH1 0x40 MLOAD PUSH3 0x461BCD PUSH1 0xE5 SHL DUP2 MSTORE PUSH1 0x4 ADD PUSH2 0x63D SWAP1 PUSH2 0x208E JUMP JUMPDEST PUSH1 0xF SSTORE JUMP JUMPDEST PUSH1 0x60 PUSH1 0x1 DUP1 SLOAD PUSH2 0x668 SWAP1 PUSH2 0x21A2 JUMP JUMPDEST PUSH1 0x0 PUSH2 0xD62 PUSH1 0x8 SLOAD SWAP1 JUMP JUMPDEST PUSH1 0x10 SLOAD SWAP1 SWAP2 POP PUSH1 0xFF AND ISZERO PUSH2 0xD75 JUMPI PUSH1 0x0 DUP1 REVERT JUMPDEST PUSH1 0x0 DUP3 GT PUSH2 0xD82 JUMPI PUSH1 0x0 DUP1 REVERT JUMPDEST PUSH1 0xF SLOAD DUP3 GT ISZERO PUSH2 0xD91 JUMPI PUSH1 0x0 DUP1 REVERT JUMPDEST PUSH1 0xE SLOAD PUSH2 0xD9E DUP4 DUP4 PUSH2 0x2114 JUMP JUMPDEST GT ISZERO PUSH2 0xDA9 JUMPI PUSH1 0x0 DUP1 REVERT JUMPDEST PUSH1 0xA SLOAD PUSH1 0x1 PUSH1 0x1 PUSH1 0xA0 SHL SUB AND CALLER EQ PUSH2 0xDD5 JUMPI DUP2 PUSH1 0xD SLOAD PUSH2 0xDC9 SWAP2 SWAP1 PUSH2 0x2140 JUMP JUMPDEST CALLVALUE LT ISZERO PUSH2 0xDD5 JUMPI PUSH1 0x0 DUP1 REVERT JUMPDEST PUSH1 0x1 JUMPDEST DUP3 DUP2 GT PUSH2 0x891 JUMPI PUSH2 0xDF2 CALLER PUSH2 0xDED DUP4 DUP6 PUSH2 0x2114 JUMP JUMPDEST PUSH2 0x1436 JUMP JUMPDEST DUP1 PUSH2 0xDFC DUP2 PUSH2 0x21DD JUMP JUMPDEST SWAP2 POP POP PUSH2 0xDD8 JUMP JUMPDEST PUSH2 0xBE1 CALLER DUP4 DUP4 PUSH2 0x1450 JUMP JUMPDEST PUSH2 0xE19 CALLER DUP4 PUSH2 0x1146 JUMP JUMPDEST PUSH2 0xE35 JUMPI PUSH1 0x40 MLOAD PUSH3 0x461BCD PUSH1 0xE5 SHL DUP2 MSTORE PUSH1 0x4 ADD PUSH2 0x63D SWAP1 PUSH2 0x20C3 JUMP JUMPDEST PUSH2 0xE41 DUP5 DUP5 DUP5 DUP5 PUSH2 0x151F JUMP JUMPDEST POP POP POP POP JUMP JUMPDEST PUSH1 0xC DUP1 SLOAD PUSH2 0xE54 SWAP1 PUSH2 0x21A2 JUMP JUMPDEST DUP1 PUSH1 0x1F ADD PUSH1 0x20 DUP1 SWAP2 DIV MUL PUSH1 0x20 ADD PUSH1 0x40 MLOAD SWAP1 DUP2 ADD PUSH1 0x40 MSTORE DUP1 SWAP3 SWAP2 SWAP1 DUP2 DUP2 MSTORE PUSH1 0x20 ADD DUP3 DUP1 SLOAD PUSH2 0xE80 SWAP1 PUSH2 0x21A2 JUMP JUMPDEST DUP1 ISZERO PUSH2 0xECD JUMPI DUP1 PUSH1 0x1F LT PUSH2 0xEA2 JUMPI PUSH2 0x100 DUP1 DUP4 SLOAD DIV MUL DUP4 MSTORE SWAP2 PUSH1 0x20 ADD SWAP2 PUSH2 0xECD JUMP JUMPDEST DUP3 ADD SWAP2 SWAP1 PUSH1 0x0 MSTORE PUSH1 0x20 PUSH1 0x0 KECCAK256 SWAP1 JUMPDEST DUP2 SLOAD DUP2 MSTORE SWAP1 PUSH1 0x1 ADD SWAP1 PUSH1 0x20 ADD DUP1 DUP4 GT PUSH2 0xEB0 JUMPI DUP3 SWAP1 SUB PUSH1 0x1F AND DUP3 ADD SWAP2 JUMPDEST POP POP POP POP POP DUP2 JUMP JUMPDEST PUSH1 0x0 DUP2 DUP2 MSTORE PUSH1 0x2 PUSH1 0x20 MSTORE PUSH1 0x40 SWAP1 KECCAK256 SLOAD PUSH1 0x60 SWAP1 PUSH1 0x1 PUSH1 0x1 PUSH1 0xA0 SHL SUB AND PUSH2 0xF54 JUMPI PUSH1 0x40 MLOAD PUSH3 0x461BCD PUSH1 0xE5 SHL DUP2 MSTORE PUSH1 0x20 PUSH1 0x4 DUP3 ADD MSTORE PUSH1 0x2F PUSH1 0x24 DUP3 ADD MSTORE PUSH32 0x4552433732314D657461646174613A2055524920717565727920666F72206E6F PUSH1 0x44 DUP3 ADD MSTORE PUSH15 0x3732BC34B9BA32B73A103A37B5B2B7 PUSH1 0x89 SHL PUSH1 0x64 DUP3 ADD MSTORE PUSH1 0x84 ADD PUSH2 0x63D JUMP JUMPDEST PUSH1 0x0 PUSH2 0xF5E PUSH2 0x1552 JUMP JUMPDEST SWAP1 POP PUSH1 0x0 DUP2 MLOAD GT PUSH2 0xF7E JUMPI PUSH1 0x40 MLOAD DUP1 PUSH1 0x20 ADD PUSH1 0x40 MSTORE DUP1 PUSH1 0x0 DUP2 MSTORE POP PUSH2 0xFAC JUMP JUMPDEST DUP1 PUSH2 0xF88 DUP5 PUSH2 0x1561 JUMP JUMPDEST PUSH1 0xC PUSH1 0x40 MLOAD PUSH1 0x20 ADD PUSH2 0xF9C SWAP4 SWAP3 SWAP2 SWAP1 PUSH2 0x1EE6 JUMP JUMPDEST PUSH1 0x40 MLOAD PUSH1 0x20 DUP2 DUP4 SUB SUB DUP2 MSTORE SWAP1 PUSH1 0x40 MSTORE JUMPDEST SWAP4 SWAP3 POP POP POP JUMP JUMPDEST PUSH1 0xA SLOAD PUSH1 0x1 PUSH1 0x1 PUSH1 0xA0 SHL SUB AND CALLER EQ PUSH2 0xFDD JUMPI PUSH1 0x40 MLOAD PUSH3 0x461BCD PUSH1 0xE5 SHL DUP2 MSTORE PUSH1 0x4 ADD PUSH2 0x63D SWAP1 PUSH2 0x208E JUMP JUMPDEST DUP1 MLOAD PUSH2 0xBE1 SWAP1 PUSH1 0xC SWAP1 PUSH1 0x20 DUP5 ADD SWAP1 PUSH2 0x1B82 JUMP JUMPDEST PUSH1 0xA SLOAD PUSH1 0x1 PUSH1 0x1 PUSH1 0xA0 SHL SUB AND CALLER EQ PUSH2 0x101A JUMPI PUSH1 0x40 MLOAD PUSH3 0x461BCD PUSH1 0xE5 SHL DUP2 MSTORE PUSH1 0x4 ADD PUSH2 0x63D SWAP1 PUSH2 0x208E JUMP JUMPDEST PUSH1 0x1 PUSH1 0x1 PUSH1 0xA0 SHL SUB DUP2 AND PUSH2 0x107F JUMPI PUSH1 0x40 MLOAD PUSH3 0x461BCD PUSH1 0xE5 SHL DUP2 MSTORE PUSH1 0x20 PUSH1 0x4 DUP3 ADD MSTORE PUSH1 0x26 PUSH1 0x24 DUP3 ADD MSTORE PUSH32 0x4F776E61626C653A206E6577206F776E657220697320746865207A65726F2061 PUSH1 0x44 DUP3 ADD MSTORE PUSH6 0x646472657373 PUSH1 0xD0 SHL PUSH1 0x64 DUP3 ADD MSTORE PUSH1 0x84 ADD PUSH2 0x63D JUMP JUMPDEST PUSH2 0x9F8 DUP2 PUSH2 0x13E4 JUMP JUMPDEST PUSH1 0x0 PUSH1 0x1 PUSH1 0x1 PUSH1 0xE0 SHL SUB NOT DUP3 AND PUSH4 0x80AC58CD PUSH1 0xE0 SHL EQ DUP1 PUSH2 0x10B9 JUMPI POP PUSH1 0x1 PUSH1 0x1 PUSH1 0xE0 SHL SUB NOT DUP3 AND PUSH4 0x5B5E139F PUSH1 0xE0 SHL EQ JUMPDEST DUP1 PUSH2 0x60B JUMPI POP PUSH4 0x1FFC9A7 PUSH1 0xE0 SHL PUSH1 0x1 PUSH1 0x1 PUSH1 0xE0 SHL SUB NOT DUP4 AND EQ PUSH2 0x60B JUMP JUMPDEST PUSH1 0x0 DUP2 DUP2 MSTORE PUSH1 0x4 PUSH1 0x20 MSTORE PUSH1 0x40 SWAP1 KECCAK256 DUP1 SLOAD PUSH1 0x1 PUSH1 0x1 PUSH1 0xA0 SHL SUB NOT AND PUSH1 0x1 PUSH1 0x1 PUSH1 0xA0 SHL SUB DUP5 AND SWAP1 DUP2 OR SWAP1 SWAP2 SSTORE DUP2 SWAP1 PUSH2 0x110D DUP3 PUSH2 0xBE5 JUMP JUMPDEST PUSH1 0x1 PUSH1 0x1 PUSH1 0xA0 SHL SUB AND PUSH32 0x8C5BE1E5EBEC7D5BD14F71427D1E84F3DD0314C0F7B2291E5B200AC8C7C3B925 PUSH1 0x40 MLOAD PUSH1 0x40 MLOAD DUP1 SWAP2 SUB SWAP1 LOG4 POP POP JUMP JUMPDEST PUSH1 0x0 DUP2 DUP2 MSTORE PUSH1 0x2 PUSH1 0x20 MSTORE PUSH1 0x40 DUP2 KECCAK256 SLOAD PUSH1 0x1 PUSH1 0x1 PUSH1 0xA0 SHL SUB AND PUSH2 0x11BF JUMPI PUSH1 0x40 MLOAD PUSH3 0x461BCD PUSH1 0xE5 SHL DUP2 MSTORE PUSH1 0x20 PUSH1 0x4 DUP3 ADD MSTORE PUSH1 0x2C PUSH1 0x24 DUP3 ADD MSTORE PUSH32 0x4552433732313A206F70657261746F7220717565727920666F72206E6F6E6578 PUSH1 0x44 DUP3 ADD MSTORE PUSH12 0x34B9BA32B73A103A37B5B2B7 PUSH1 0xA1 SHL PUSH1 0x64 DUP3 ADD MSTORE PUSH1 0x84 ADD PUSH2 0x63D JUMP JUMPDEST PUSH1 0x0 PUSH2 0x11CA DUP4 PUSH2 0xBE5 JUMP JUMPDEST SWAP1 POP DUP1 PUSH1 0x1 PUSH1 0x1 PUSH1 0xA0 SHL SUB AND DUP5 PUSH1 0x1 PUSH1 0x1 PUSH1 0xA0 SHL SUB AND EQ DUP1 PUSH2 0x1211 JUMPI POP PUSH1 0x1 PUSH1 0x1 PUSH1 0xA0 SHL SUB DUP1 DUP3 AND PUSH1 0x0 SWAP1 DUP2 MSTORE PUSH1 0x5 PUSH1 0x20 SWAP1 DUP2 MSTORE PUSH1 0x40 DUP1 DUP4 KECCAK256 SWAP4 DUP9 AND DUP4 MSTORE SWAP3 SWAP1 MSTORE KECCAK256 SLOAD PUSH1 0xFF AND JUMPDEST DUP1 PUSH2 0x1235 JUMPI POP DUP4 PUSH1 0x1 PUSH1 0x1 PUSH1 0xA0 SHL SUB AND PUSH2 0x122A DUP5 PUSH2 0x6EB JUMP JUMPDEST PUSH1 0x1 PUSH1 0x1 PUSH1 0xA0 SHL SUB AND EQ JUMPDEST SWAP5 SWAP4 POP POP POP POP JUMP JUMPDEST DUP3 PUSH1 0x1 PUSH1 0x1 PUSH1 0xA0 SHL SUB AND PUSH2 0x1250 DUP3 PUSH2 0xBE5 JUMP JUMPDEST PUSH1 0x1 PUSH1 0x1 PUSH1 0xA0 SHL SUB AND EQ PUSH2 0x12B4 JUMPI PUSH1 0x40 MLOAD PUSH3 0x461BCD PUSH1 0xE5 SHL DUP2 MSTORE PUSH1 0x20 PUSH1 0x4 DUP3 ADD MSTORE PUSH1 0x25 PUSH1 0x24 DUP3 ADD MSTORE PUSH32 0x4552433732313A207472616E736665722066726F6D20696E636F727265637420 PUSH1 0x44 DUP3 ADD MSTORE PUSH5 0x37BBB732B9 PUSH1 0xD9 SHL PUSH1 0x64 DUP3 ADD MSTORE PUSH1 0x84 ADD PUSH2 0x63D JUMP JUMPDEST PUSH1 0x1 PUSH1 0x1 PUSH1 0xA0 SHL SUB DUP3 AND PUSH2 0x1316 JUMPI PUSH1 0x40 MLOAD PUSH3 0x461BCD PUSH1 0xE5 SHL DUP2 MSTORE PUSH1 0x20 PUSH1 0x4 DUP3 ADD MSTORE PUSH1 0x24 DUP1 DUP3 ADD MSTORE PUSH32 0x4552433732313A207472616E7366657220746F20746865207A65726F20616464 PUSH1 0x44 DUP3 ADD MSTORE PUSH4 0x72657373 PUSH1 0xE0 SHL PUSH1 0x64 DUP3 ADD MSTORE PUSH1 0x84 ADD PUSH2 0x63D JUMP JUMPDEST PUSH2 0x1321 DUP4 DUP4 DUP4 PUSH2 0x167C JUMP JUMPDEST PUSH2 0x132C PUSH1 0x0 DUP3 PUSH2 0x10D8 JUMP JUMPDEST PUSH1 0x1 PUSH1 0x1 PUSH1 0xA0 SHL SUB DUP4 AND PUSH1 0x0 SWAP1 DUP2 MSTORE PUSH1 0x3 PUSH1 0x20 MSTORE PUSH1 0x40 DUP2 KECCAK256 DUP1 SLOAD PUSH1 0x1 SWAP3 SWAP1 PUSH2 0x1355 SWAP1 DUP5 SWAP1 PUSH2 0x215F JUMP JUMPDEST SWAP1 SWAP2 SSTORE POP POP PUSH1 0x1 PUSH1 0x1 PUSH1 0xA0 SHL SUB DUP3 AND PUSH1 0x0 SWAP1 DUP2 MSTORE PUSH1 0x3 PUSH1 0x20 MSTORE PUSH1 0x40 DUP2 KECCAK256 DUP1 SLOAD PUSH1 0x1 SWAP3 SWAP1 PUSH2 0x1383 SWAP1 DUP5 SWAP1 PUSH2 0x2114 JUMP JUMPDEST SWAP1 SWAP2 SSTORE POP POP PUSH1 0x0 DUP2 DUP2 MSTORE PUSH1 0x2 PUSH1 0x20 MSTORE PUSH1 0x40 DUP1 DUP3 KECCAK256 DUP1 SLOAD PUSH1 0x1 PUSH1 0x1 PUSH1 0xA0 SHL SUB NOT AND PUSH1 0x1 PUSH1 0x1 PUSH1 0xA0 SHL SUB DUP7 DUP2 AND SWAP2 DUP3 OR SWAP1 SWAP3 SSTORE SWAP2 MLOAD DUP5 SWAP4 SWAP2 DUP8 AND SWAP2 PUSH32 0xDDF252AD1BE2C89B69C2B068FC378DAA952BA7F163C4A11628F55A4DF523B3EF SWAP2 LOG4 PUSH2 0x891 JUMP JUMPDEST PUSH1 0xA DUP1 SLOAD PUSH1 0x1 PUSH1 0x1 PUSH1 0xA0 SHL SUB DUP4 DUP2 AND PUSH1 0x1 PUSH1 0x1 PUSH1 0xA0 SHL SUB NOT DUP4 AND DUP2 OR SWAP1 SWAP4 SSTORE PUSH1 0x40 MLOAD SWAP2 AND SWAP2 SWAP1 DUP3 SWAP1 PUSH32 0x8BE0079C531659141344CD1FD0A4F28419497F9722A3DAAFE3B4186F6B6457E0 SWAP1 PUSH1 0x0 SWAP1 LOG3 POP POP JUMP JUMPDEST PUSH2 0xBE1 DUP3 DUP3 PUSH1 0x40 MLOAD DUP1 PUSH1 0x20 ADD PUSH1 0x40 MSTORE DUP1 PUSH1 0x0 DUP2 MSTORE POP PUSH2 0x1739 JUMP JUMPDEST DUP2 PUSH1 0x1 PUSH1 0x1 PUSH1 0xA0 SHL SUB AND DUP4 PUSH1 0x1 PUSH1 0x1 PUSH1 0xA0 SHL SUB AND EQ ISZERO PUSH2 0x14B2 JUMPI PUSH1 0x40 MLOAD PUSH3 0x461BCD PUSH1 0xE5 SHL DUP2 MSTORE PUSH1 0x20 PUSH1 0x4 DUP3 ADD MSTORE PUSH1 0x19 PUSH1 0x24 DUP3 ADD MSTORE PUSH32 0x4552433732313A20617070726F766520746F2063616C6C657200000000000000 PUSH1 0x44 DUP3 ADD MSTORE PUSH1 0x64 ADD PUSH2 0x63D JUMP JUMPDEST PUSH1 0x1 PUSH1 0x1 PUSH1 0xA0 SHL SUB DUP4 DUP2 AND PUSH1 0x0 DUP2 DUP2 MSTORE PUSH1 0x5 PUSH1 0x20 SWAP1 DUP2 MSTORE PUSH1 0x40 DUP1 DUP4 KECCAK256 SWAP5 DUP8 AND DUP1 DUP5 MSTORE SWAP5 DUP3 MSTORE SWAP2 DUP3 SWAP1 KECCAK256 DUP1 SLOAD PUSH1 0xFF NOT AND DUP7 ISZERO ISZERO SWAP1 DUP2 OR SWAP1 SWAP2 SSTORE SWAP2 MLOAD SWAP2 DUP3 MSTORE PUSH32 0x17307EAB39AB6107E8899845AD3D59BD9653F200F220920489CA2B5937696C31 SWAP2 ADD PUSH1 0x40 MLOAD DUP1 SWAP2 SUB SWAP1 LOG3 POP POP POP JUMP JUMPDEST PUSH2 0x152A DUP5 DUP5 DUP5 PUSH2 0x123D JUMP JUMPDEST PUSH2 0x1536 DUP5 DUP5 DUP5 DUP5 PUSH2 0x176C JUMP JUMPDEST PUSH2 0xE41 JUMPI PUSH1 0x40 MLOAD PUSH3 0x461BCD PUSH1 0xE5 SHL DUP2 MSTORE PUSH1 0x4 ADD PUSH2 0x63D SWAP1 PUSH2 0x203C JUMP JUMPDEST PUSH1 0x60 PUSH1 0xB DUP1 SLOAD PUSH2 0x668 SWAP1 PUSH2 0x21A2 JUMP JUMPDEST PUSH1 0x60 DUP2 PUSH2 0x1586 JUMPI POP PUSH1 0x40 DUP1 MLOAD DUP1 DUP3 ADD SWAP1 SWAP2 MSTORE PUSH1 0x1 DUP2 MSTORE PUSH1 0x3 PUSH1 0xFC SHL PUSH1 0x20 DUP3 ADD MSTORE PUSH2 0x60E JUMP JUMPDEST DUP2 PUSH1 0x0 JUMPDEST DUP2 ISZERO PUSH2 0x15B0 JUMPI DUP1 PUSH2 0x159A DUP2 PUSH2 0x21DD JUMP JUMPDEST SWAP2 POP PUSH2 0x15A9 SWAP1 POP PUSH1 0xA DUP4 PUSH2 0x212C JUMP JUMPDEST SWAP2 POP PUSH2 0x158A JUMP JUMPDEST PUSH1 0x0 DUP2 PUSH8 0xFFFFFFFFFFFFFFFF DUP2 GT ISZERO PUSH2 0x15D9 JUMPI PUSH4 0x4E487B71 PUSH1 0xE0 SHL PUSH1 0x0 MSTORE PUSH1 0x41 PUSH1 0x4 MSTORE PUSH1 0x24 PUSH1 0x0 REVERT JUMPDEST PUSH1 0x40 MLOAD SWAP1 DUP1 DUP3 MSTORE DUP1 PUSH1 0x1F ADD PUSH1 0x1F NOT AND PUSH1 0x20 ADD DUP3 ADD PUSH1 0x40 MSTORE DUP1 ISZERO PUSH2 0x1603 JUMPI PUSH1 0x20 DUP3 ADD DUP2 DUP1 CALLDATASIZE DUP4 CALLDATACOPY ADD SWAP1 POP JUMPDEST POP SWAP1 POP JUMPDEST DUP5 ISZERO PUSH2 0x1235 JUMPI PUSH2 0x1618 PUSH1 0x1 DUP4 PUSH2 0x215F JUMP JUMPDEST SWAP2 POP PUSH2 0x1625 PUSH1 0xA DUP7 PUSH2 0x21F8 JUMP JUMPDEST PUSH2 0x1630 SWAP1 PUSH1 0x30 PUSH2 0x2114 JUMP JUMPDEST PUSH1 0xF8 SHL DUP2 DUP4 DUP2 MLOAD DUP2 LT PUSH2 0x1653 JUMPI PUSH4 0x4E487B71 PUSH1 0xE0 SHL PUSH1 0x0 MSTORE PUSH1 0x32 PUSH1 0x4 MSTORE PUSH1 0x24 PUSH1 0x0 REVERT JUMPDEST PUSH1 0x20 ADD ADD SWAP1 PUSH1 0x1 PUSH1 0x1 PUSH1 0xF8 SHL SUB NOT AND SWAP1 DUP2 PUSH1 0x0 BYTE SWAP1 MSTORE8 POP PUSH2 0x1675 PUSH1 0xA DUP7 PUSH2 0x212C JUMP JUMPDEST SWAP5 POP PUSH2 0x1607 JUMP JUMPDEST PUSH1 0x1 PUSH1 0x1 PUSH1 0xA0 SHL SUB DUP4 AND PUSH2 0x16D7 JUMPI PUSH2 0x16D2 DUP2 PUSH1 0x8 DUP1 SLOAD PUSH1 0x0 DUP4 DUP2 MSTORE PUSH1 0x9 PUSH1 0x20 MSTORE PUSH1 0x40 DUP2 KECCAK256 DUP3 SWAP1 SSTORE PUSH1 0x1 DUP3 ADD DUP4 SSTORE SWAP2 SWAP1 SWAP2 MSTORE PUSH32 0xF3F7A9FE364FAAB93B216DA50A3214154F22A0A2B415B23A84C8169E8B636EE3 ADD SSTORE JUMP JUMPDEST PUSH2 0x16FA JUMP JUMPDEST DUP2 PUSH1 0x1 PUSH1 0x1 PUSH1 0xA0 SHL SUB AND DUP4 PUSH1 0x1 PUSH1 0x1 PUSH1 0xA0 SHL SUB AND EQ PUSH2 0x16FA JUMPI PUSH2 0x16FA DUP4 DUP3 PUSH2 0x1879 JUMP JUMPDEST PUSH1 0x1 PUSH1 0x1 PUSH1 0xA0 SHL SUB DUP3 AND PUSH2 0x1716 JUMPI PUSH2 0x1711 DUP2 PUSH2 0x1916 JUMP JUMPDEST PUSH2 0x891 JUMP JUMPDEST DUP3 PUSH1 0x1 PUSH1 0x1 PUSH1 0xA0 SHL SUB AND DUP3 PUSH1 0x1 PUSH1 0x1 PUSH1 0xA0 SHL SUB AND EQ PUSH2 0x891 JUMPI PUSH2 0x891 DUP3 DUP3 PUSH2 0x19EF JUMP JUMPDEST PUSH2 0x1743 DUP4 DUP4 PUSH2 0x1A33 JUMP JUMPDEST PUSH2 0x1750 PUSH1 0x0 DUP5 DUP5 DUP5 PUSH2 0x176C JUMP JUMPDEST PUSH2 0x891 JUMPI PUSH1 0x40 MLOAD PUSH3 0x461BCD PUSH1 0xE5 SHL DUP2 MSTORE PUSH1 0x4 ADD PUSH2 0x63D SWAP1 PUSH2 0x203C JUMP JUMPDEST PUSH1 0x0 PUSH1 0x1 PUSH1 0x1 PUSH1 0xA0 SHL SUB DUP5 AND EXTCODESIZE ISZERO PUSH2 0x186E JUMPI PUSH1 0x40 MLOAD PUSH4 0xA85BD01 PUSH1 0xE1 SHL DUP2 MSTORE PUSH1 0x1 PUSH1 0x1 PUSH1 0xA0 SHL SUB DUP6 AND SWAP1 PUSH4 0x150B7A02 SWAP1 PUSH2 0x17B0 SWAP1 CALLER SWAP1 DUP10 SWAP1 DUP9 SWAP1 DUP9 SWAP1 PUSH1 0x4 ADD PUSH2 0x1FA8 JUMP JUMPDEST PUSH1 0x20 PUSH1 0x40 MLOAD DUP1 DUP4 SUB DUP2 PUSH1 0x0 DUP8 DUP1 EXTCODESIZE ISZERO DUP1 ISZERO PUSH2 0x17CA JUMPI PUSH1 0x0 DUP1 REVERT JUMPDEST POP GAS CALL SWAP3 POP POP POP DUP1 ISZERO PUSH2 0x17FA JUMPI POP PUSH1 0x40 DUP1 MLOAD PUSH1 0x1F RETURNDATASIZE SWAP1 DUP2 ADD PUSH1 0x1F NOT AND DUP3 ADD SWAP1 SWAP3 MSTORE PUSH2 0x17F7 SWAP2 DUP2 ADD SWAP1 PUSH2 0x1E40 JUMP JUMPDEST PUSH1 0x1 JUMPDEST PUSH2 0x1854 JUMPI RETURNDATASIZE DUP1 DUP1 ISZERO PUSH2 0x1828 JUMPI PUSH1 0x40 MLOAD SWAP2 POP PUSH1 0x1F NOT PUSH1 0x3F RETURNDATASIZE ADD AND DUP3 ADD PUSH1 0x40 MSTORE RETURNDATASIZE DUP3 MSTORE RETURNDATASIZE PUSH1 0x0 PUSH1 0x20 DUP5 ADD RETURNDATACOPY PUSH2 0x182D JUMP JUMPDEST PUSH1 0x60 SWAP2 POP JUMPDEST POP DUP1 MLOAD PUSH2 0x184C JUMPI PUSH1 0x40 MLOAD PUSH3 0x461BCD PUSH1 0xE5 SHL DUP2 MSTORE PUSH1 0x4 ADD PUSH2 0x63D SWAP1 PUSH2 0x203C JUMP JUMPDEST DUP1 MLOAD DUP2 PUSH1 0x20 ADD REVERT JUMPDEST PUSH1 0x1 PUSH1 0x1 PUSH1 0xE0 SHL SUB NOT AND PUSH4 0xA85BD01 PUSH1 0xE1 SHL EQ SWAP1 POP PUSH2 0x1235 JUMP JUMPDEST POP PUSH1 0x1 SWAP5 SWAP4 POP POP POP POP JUMP JUMPDEST PUSH1 0x0 PUSH1 0x1 PUSH2 0x1886 DUP5 PUSH2 0xC5C JUMP JUMPDEST PUSH2 0x1890 SWAP2 SWAP1 PUSH2 0x215F JUMP JUMPDEST PUSH1 0x0 DUP4 DUP2 MSTORE PUSH1 0x7 PUSH1 0x20 MSTORE PUSH1 0x40 SWAP1 KECCAK256 SLOAD SWAP1 SWAP2 POP DUP1 DUP3 EQ PUSH2 0x18E3 JUMPI PUSH1 0x1 PUSH1 0x1 PUSH1 0xA0 SHL SUB DUP5 AND PUSH1 0x0 SWAP1 DUP2 MSTORE PUSH1 0x6 PUSH1 0x20 SWAP1 DUP2 MSTORE PUSH1 0x40 DUP1 DUP4 KECCAK256 DUP6 DUP5 MSTORE DUP3 MSTORE DUP1 DUP4 KECCAK256 SLOAD DUP5 DUP5 MSTORE DUP2 DUP5 KECCAK256 DUP2 SWAP1 SSTORE DUP4 MSTORE PUSH1 0x7 SWAP1 SWAP2 MSTORE SWAP1 KECCAK256 DUP2 SWAP1 SSTORE JUMPDEST POP PUSH1 0x0 SWAP2 DUP3 MSTORE PUSH1 0x7 PUSH1 0x20 SWAP1 DUP2 MSTORE PUSH1 0x40 DUP1 DUP5 KECCAK256 DUP5 SWAP1 SSTORE PUSH1 0x1 PUSH1 0x1 PUSH1 0xA0 SHL SUB SWAP1 SWAP5 AND DUP4 MSTORE PUSH1 0x6 DUP2 MSTORE DUP4 DUP4 KECCAK256 SWAP2 DUP4 MSTORE MSTORE SWAP1 DUP2 KECCAK256 SSTORE JUMP JUMPDEST PUSH1 0x8 SLOAD PUSH1 0x0 SWAP1 PUSH2 0x1928 SWAP1 PUSH1 0x1 SWAP1 PUSH2 0x215F JUMP JUMPDEST PUSH1 0x0 DUP4 DUP2 MSTORE PUSH1 0x9 PUSH1 0x20 MSTORE PUSH1 0x40 DUP2 KECCAK256 SLOAD PUSH1 0x8 DUP1 SLOAD SWAP4 SWAP5 POP SWAP1 SWAP3 DUP5 SWAP1 DUP2 LT PUSH2 0x195E JUMPI PUSH4 0x4E487B71 PUSH1 0xE0 SHL PUSH1 0x0 MSTORE PUSH1 0x32 PUSH1 0x4 MSTORE PUSH1 0x24 PUSH1 0x0 REVERT JUMPDEST SWAP1 PUSH1 0x0 MSTORE PUSH1 0x20 PUSH1 0x0 KECCAK256 ADD SLOAD SWAP1 POP DUP1 PUSH1 0x8 DUP4 DUP2 SLOAD DUP2 LT PUSH2 0x198D JUMPI PUSH4 0x4E487B71 PUSH1 0xE0 SHL PUSH1 0x0 MSTORE PUSH1 0x32 PUSH1 0x4 MSTORE PUSH1 0x24 PUSH1 0x0 REVERT JUMPDEST PUSH1 0x0 SWAP2 DUP3 MSTORE PUSH1 0x20 DUP1 DUP4 KECCAK256 SWAP1 SWAP2 ADD SWAP3 SWAP1 SWAP3 SSTORE DUP3 DUP2 MSTORE PUSH1 0x9 SWAP1 SWAP2 MSTORE PUSH1 0x40 DUP1 DUP3 KECCAK256 DUP5 SWAP1 SSTORE DUP6 DUP3 MSTORE DUP2 KECCAK256 SSTORE PUSH1 0x8 DUP1 SLOAD DUP1 PUSH2 0x19D3 JUMPI PUSH4 0x4E487B71 PUSH1 0xE0 SHL PUSH1 0x0 MSTORE PUSH1 0x31 PUSH1 0x4 MSTORE PUSH1 0x24 PUSH1 0x0 REVERT JUMPDEST PUSH1 0x1 SWAP1 SUB DUP2 DUP2 SWAP1 PUSH1 0x0 MSTORE PUSH1 0x20 PUSH1 0x0 KECCAK256 ADD PUSH1 0x0 SWAP1 SSTORE SWAP1 SSTORE POP POP POP POP JUMP JUMPDEST PUSH1 0x0 PUSH2 0x19FA DUP4 PUSH2 0xC5C JUMP JUMPDEST PUSH1 0x1 PUSH1 0x1 PUSH1 0xA0 SHL SUB SWAP1 SWAP4 AND PUSH1 0x0 SWAP1 DUP2 MSTORE PUSH1 0x6 PUSH1 0x20 SWAP1 DUP2 MSTORE PUSH1 0x40 DUP1 DUP4 KECCAK256 DUP7 DUP5 MSTORE DUP3 MSTORE DUP1 DUP4 KECCAK256 DUP6 SWAP1 SSTORE SWAP4 DUP3 MSTORE PUSH1 0x7 SWAP1 MSTORE SWAP2 SWAP1 SWAP2 KECCAK256 SWAP2 SWAP1 SWAP2 SSTORE POP JUMP JUMPDEST PUSH1 0x1 PUSH1 0x1 PUSH1 0xA0 SHL SUB DUP3 AND PUSH2 0x1A89 JUMPI PUSH1 0x40 MLOAD PUSH3 0x461BCD PUSH1 0xE5 SHL DUP2 MSTORE PUSH1 0x20 PUSH1 0x4 DUP3 ADD DUP2 SWAP1 MSTORE PUSH1 0x24 DUP3 ADD MSTORE PUSH32 0x4552433732313A206D696E7420746F20746865207A65726F2061646472657373 PUSH1 0x44 DUP3 ADD MSTORE PUSH1 0x64 ADD PUSH2 0x63D JUMP JUMPDEST PUSH1 0x0 DUP2 DUP2 MSTORE PUSH1 0x2 PUSH1 0x20 MSTORE PUSH1 0x40 SWAP1 KECCAK256 SLOAD PUSH1 0x1 PUSH1 0x1 PUSH1 0xA0 SHL SUB AND ISZERO PUSH2 0x1AEE JUMPI PUSH1 0x40 MLOAD PUSH3 0x461BCD PUSH1 0xE5 SHL DUP2 MSTORE PUSH1 0x20 PUSH1 0x4 DUP3 ADD MSTORE PUSH1 0x1C PUSH1 0x24 DUP3 ADD MSTORE PUSH32 0x4552433732313A20746F6B656E20616C7265616479206D696E74656400000000 PUSH1 0x44 DUP3 ADD MSTORE PUSH1 0x64 ADD PUSH2 0x63D JUMP JUMPDEST PUSH2 0x1AFA PUSH1 0x0 DUP4 DUP4 PUSH2 0x167C JUMP JUMPDEST PUSH1 0x1 PUSH1 0x1 PUSH1 0xA0 SHL SUB DUP3 AND PUSH1 0x0 SWAP1 DUP2 MSTORE PUSH1 0x3 PUSH1 0x20 MSTORE PUSH1 0x40 DUP2 KECCAK256 DUP1 SLOAD PUSH1 0x1 SWAP3 SWAP1 PUSH2 0x1B23 SWAP1 DUP5 SWAP1 PUSH2 0x2114 JUMP JUMPDEST SWAP1 SWAP2 SSTORE POP POP PUSH1 0x0 DUP2 DUP2 MSTORE PUSH1 0x2 PUSH1 0x20 MSTORE PUSH1 0x40 DUP1 DUP3 KECCAK256 DUP1 SLOAD PUSH1 0x1 PUSH1 0x1 PUSH1 0xA0 SHL SUB NOT AND PUSH1 0x1 PUSH1 0x1 PUSH1 0xA0 SHL SUB DUP7 AND SWAP1 DUP2 OR SWAP1 SWAP2 SSTORE SWAP1 MLOAD DUP4 SWAP3 SWAP1 PUSH32 0xDDF252AD1BE2C89B69C2B068FC378DAA952BA7F163C4A11628F55A4DF523B3EF SWAP1 DUP3 SWAP1 LOG4 PUSH2 0xBE1 JUMP JUMPDEST DUP3 DUP1 SLOAD PUSH2 0x1B8E SWAP1 PUSH2 0x21A2 JUMP JUMPDEST SWAP1 PUSH1 0x0 MSTORE PUSH1 0x20 PUSH1 0x0 KECCAK256 SWAP1 PUSH1 0x1F ADD PUSH1 0x20 SWAP1 DIV DUP2 ADD SWAP3 DUP3 PUSH2 0x1BB0 JUMPI PUSH1 0x0 DUP6 SSTORE PUSH2 0x1BF6 JUMP JUMPDEST DUP3 PUSH1 0x1F LT PUSH2 0x1BC9 JUMPI DUP1 MLOAD PUSH1 0xFF NOT AND DUP4 DUP1 ADD OR DUP6 SSTORE PUSH2 0x1BF6 JUMP JUMPDEST DUP3 DUP1 ADD PUSH1 0x1 ADD DUP6 SSTORE DUP3 ISZERO PUSH2 0x1BF6 JUMPI SWAP2 DUP3 ADD JUMPDEST DUP3 DUP2 GT ISZERO PUSH2 0x1BF6 JUMPI DUP3 MLOAD DUP3 SSTORE SWAP2 PUSH1 0x20 ADD SWAP2 SWAP1 PUSH1 0x1 ADD SWAP1 PUSH2 0x1BDB JUMP JUMPDEST POP PUSH2 0x1C02 SWAP3 SWAP2 POP PUSH2 0x1C06 JUMP JUMPDEST POP SWAP1 JUMP JUMPDEST JUMPDEST DUP1 DUP3 GT ISZERO PUSH2 0x1C02 JUMPI PUSH1 0x0 DUP2 SSTORE PUSH1 0x1 ADD PUSH2 0x1C07 JUMP JUMPDEST PUSH1 0x0 PUSH8 0xFFFFFFFFFFFFFFFF DUP1 DUP5 GT ISZERO PUSH2 0x1C36 JUMPI PUSH2 0x1C36 PUSH2 0x2238 JUMP JUMPDEST PUSH1 0x40 MLOAD PUSH1 0x1F DUP6 ADD PUSH1 0x1F NOT SWAP1 DUP2 AND PUSH1 0x3F ADD AND DUP2 ADD SWAP1 DUP3 DUP3 GT DUP2 DUP4 LT OR ISZERO PUSH2 0x1C5E JUMPI PUSH2 0x1C5E PUSH2 0x2238 JUMP JUMPDEST DUP2 PUSH1 0x40 MSTORE DUP1 SWAP4 POP DUP6 DUP2 MSTORE DUP7 DUP7 DUP7 ADD GT ISZERO PUSH2 0x1C77 JUMPI PUSH1 0x0 DUP1 REVERT JUMPDEST DUP6 DUP6 PUSH1 0x20 DUP4 ADD CALLDATACOPY PUSH1 0x0 PUSH1 0x20 DUP8 DUP4 ADD ADD MSTORE POP POP POP SWAP4 SWAP3 POP POP POP JUMP JUMPDEST DUP1 CALLDATALOAD PUSH1 0x1 PUSH1 0x1 PUSH1 0xA0 SHL SUB DUP2 AND DUP2 EQ PUSH2 0x60E JUMPI PUSH1 0x0 DUP1 REVERT JUMPDEST DUP1 CALLDATALOAD DUP1 ISZERO ISZERO DUP2 EQ PUSH2 0x60E JUMPI PUSH1 0x0 DUP1 REVERT JUMPDEST PUSH1 0x0 PUSH1 0x20 DUP3 DUP5 SUB SLT ISZERO PUSH2 0x1CC9 JUMPI DUP1 DUP2 REVERT JUMPDEST PUSH2 0xFAC DUP3 PUSH2 0x1C91 JUMP JUMPDEST PUSH1 0x0 DUP1 PUSH1 0x40 DUP4 DUP6 SUB SLT ISZERO PUSH2 0x1CE4 JUMPI DUP1 DUP2 REVERT JUMPDEST PUSH2 0x1CED DUP4 PUSH2 0x1C91 JUMP JUMPDEST SWAP2 POP PUSH2 0x1CFB PUSH1 0x20 DUP5 ADD PUSH2 0x1C91 JUMP JUMPDEST SWAP1 POP SWAP3 POP SWAP3 SWAP1 POP JUMP JUMPDEST PUSH1 0x0 DUP1 PUSH1 0x0 PUSH1 0x60 DUP5 DUP7 SUB SLT ISZERO PUSH2 0x1D18 JUMPI DUP1 DUP2 REVERT JUMPDEST PUSH2 0x1D21 DUP5 PUSH2 0x1C91 JUMP JUMPDEST SWAP3 POP PUSH2 0x1D2F PUSH1 0x20 DUP6 ADD PUSH2 0x1C91 JUMP JUMPDEST SWAP2 POP PUSH1 0x40 DUP5 ADD CALLDATALOAD SWAP1 POP SWAP3 POP SWAP3 POP SWAP3 JUMP JUMPDEST PUSH1 0x0 DUP1 PUSH1 0x0 DUP1 PUSH1 0x80 DUP6 DUP8 SUB SLT ISZERO PUSH2 0x1D54 JUMPI DUP1 DUP2 REVERT JUMPDEST PUSH2 0x1D5D DUP6 PUSH2 0x1C91 JUMP JUMPDEST SWAP4 POP PUSH2 0x1D6B PUSH1 0x20 DUP7 ADD PUSH2 0x1C91 JUMP JUMPDEST SWAP3 POP PUSH1 0x40 DUP6 ADD CALLDATALOAD SWAP2 POP PUSH1 0x60 DUP6 ADD CALLDATALOAD PUSH8 0xFFFFFFFFFFFFFFFF DUP2 GT ISZERO PUSH2 0x1D8D JUMPI DUP2 DUP3 REVERT JUMPDEST DUP6 ADD PUSH1 0x1F DUP2 ADD DUP8 SGT PUSH2 0x1D9D JUMPI DUP2 DUP3 REVERT JUMPDEST PUSH2 0x1DAC DUP8 DUP3 CALLDATALOAD PUSH1 0x20 DUP5 ADD PUSH2 0x1C1B JUMP JUMPDEST SWAP2 POP POP SWAP3 SWAP6 SWAP2 SWAP5 POP SWAP3 POP JUMP JUMPDEST PUSH1 0x0 DUP1 PUSH1 0x40 DUP4 DUP6 SUB SLT ISZERO PUSH2 0x1DCA JUMPI DUP2 DUP3 REVERT JUMPDEST PUSH2 0x1DD3 DUP4 PUSH2 0x1C91 JUMP JUMPDEST SWAP2 POP PUSH2 0x1CFB PUSH1 0x20 DUP5 ADD PUSH2 0x1CA8 JUMP JUMPDEST PUSH1 0x0 DUP1 PUSH1 0x40 DUP4 DUP6 SUB SLT ISZERO PUSH2 0x1DF3 JUMPI DUP2 DUP3 REVERT JUMPDEST PUSH2 0x1DFC DUP4 PUSH2 0x1C91 JUMP JUMPDEST SWAP5 PUSH1 0x20 SWAP4 SWAP1 SWAP4 ADD CALLDATALOAD SWAP4 POP POP POP JUMP JUMPDEST PUSH1 0x0 PUSH1 0x20 DUP3 DUP5 SUB SLT ISZERO PUSH2 0x1E1B JUMPI DUP1 DUP2 REVERT JUMPDEST PUSH2 0xFAC DUP3 PUSH2 0x1CA8 JUMP JUMPDEST PUSH1 0x0 PUSH1 0x20 DUP3 DUP5 SUB SLT ISZERO PUSH2 0x1E35 JUMPI DUP1 DUP2 REVERT JUMPDEST DUP2 CALLDATALOAD PUSH2 0xFAC DUP2 PUSH2 0x224E JUMP JUMPDEST PUSH1 0x0 PUSH1 0x20 DUP3 DUP5 SUB SLT ISZERO PUSH2 0x1E51 JUMPI DUP1 DUP2 REVERT JUMPDEST DUP2 MLOAD PUSH2 0xFAC DUP2 PUSH2 0x224E JUMP JUMPDEST PUSH1 0x0 PUSH1 0x20 DUP3 DUP5 SUB SLT ISZERO PUSH2 0x1E6D JUMPI DUP1 DUP2 REVERT JUMPDEST DUP2 CALLDATALOAD PUSH8 0xFFFFFFFFFFFFFFFF DUP2 GT ISZERO PUSH2 0x1E83 JUMPI DUP2 DUP3 REVERT JUMPDEST DUP3 ADD PUSH1 0x1F DUP2 ADD DUP5 SGT PUSH2 0x1E93 JUMPI DUP2 DUP3 REVERT JUMPDEST PUSH2 0x1235 DUP5 DUP3 CALLDATALOAD PUSH1 0x20 DUP5 ADD PUSH2 0x1C1B JUMP JUMPDEST PUSH1 0x0 PUSH1 0x20 DUP3 DUP5 SUB SLT ISZERO PUSH2 0x1EB3 JUMPI DUP1 DUP2 REVERT JUMPDEST POP CALLDATALOAD SWAP2 SWAP1 POP JUMP JUMPDEST PUSH1 0x0 DUP2 MLOAD DUP1 DUP5 MSTORE PUSH2 0x1ED2 DUP2 PUSH1 0x20 DUP7 ADD PUSH1 0x20 DUP7 ADD PUSH2 0x2176 JUMP JUMPDEST PUSH1 0x1F ADD PUSH1 0x1F NOT AND SWAP3 SWAP1 SWAP3 ADD PUSH1 0x20 ADD SWAP3 SWAP2 POP POP JUMP JUMPDEST PUSH1 0x0 DUP5 MLOAD PUSH1 0x20 PUSH2 0x1EF9 DUP3 DUP6 DUP4 DUP11 ADD PUSH2 0x2176 JUMP JUMPDEST DUP6 MLOAD SWAP2 DUP5 ADD SWAP2 PUSH2 0x1F0C DUP2 DUP5 DUP5 DUP11 ADD PUSH2 0x2176 JUMP JUMPDEST DUP6 SLOAD SWAP3 ADD SWAP2 DUP4 SWAP1 PUSH1 0x2 DUP2 DIV PUSH1 0x1 DUP1 DUP4 AND DUP1 PUSH2 0x1F28 JUMPI PUSH1 0x7F DUP4 AND SWAP3 POP JUMPDEST DUP6 DUP4 LT DUP2 EQ ISZERO PUSH2 0x1F46 JUMPI PUSH4 0x4E487B71 PUSH1 0xE0 SHL DUP9 MSTORE PUSH1 0x22 PUSH1 0x4 MSTORE PUSH1 0x24 DUP9 REVERT JUMPDEST DUP1 DUP1 ISZERO PUSH2 0x1F5A JUMPI PUSH1 0x1 DUP2 EQ PUSH2 0x1F6B JUMPI PUSH2 0x1F97 JUMP JUMPDEST PUSH1 0xFF NOT DUP6 AND DUP9 MSTORE DUP4 DUP9 ADD SWAP6 POP PUSH2 0x1F97 JUMP JUMPDEST PUSH1 0x0 DUP12 DUP2 MSTORE PUSH1 0x20 SWAP1 KECCAK256 DUP10 JUMPDEST DUP6 DUP2 LT ISZERO PUSH2 0x1F8F JUMPI DUP2 SLOAD DUP11 DUP3 ADD MSTORE SWAP1 DUP5 ADD SWAP1 DUP9 ADD PUSH2 0x1F76 JUMP JUMPDEST POP POP DUP4 DUP9 ADD SWAP6 POP JUMPDEST POP SWAP4 SWAP12 SWAP11 POP POP POP POP POP POP POP POP POP POP POP JUMP JUMPDEST PUSH1 0x1 PUSH1 0x1 PUSH1 0xA0 SHL SUB DUP6 DUP2 AND DUP3 MSTORE DUP5 AND PUSH1 0x20 DUP3 ADD MSTORE PUSH1 0x40 DUP2 ADD DUP4 SWAP1 MSTORE PUSH1 0x80 PUSH1 0x60 DUP3 ADD DUP2 SWAP1 MSTORE PUSH1 0x0 SWAP1 PUSH2 0x1FDB SWAP1 DUP4 ADD DUP5 PUSH2 0x1EBA JUMP JUMPDEST SWAP7 SWAP6 POP POP POP POP POP POP JUMP JUMPDEST PUSH1 0x20 DUP1 DUP3 MSTORE DUP3 MLOAD DUP3 DUP3 ADD DUP2 SWAP1 MSTORE PUSH1 0x0 SWAP2 SWAP1 DUP5 DUP3 ADD SWAP1 PUSH1 0x40 DUP6 ADD SWAP1 DUP5 JUMPDEST DUP2 DUP2 LT ISZERO PUSH2 0x201D JUMPI DUP4 MLOAD DUP4 MSTORE SWAP3 DUP5 ADD SWAP3 SWAP2 DUP5 ADD SWAP2 PUSH1 0x1 ADD PUSH2 0x2001 JUMP JUMPDEST POP SWAP1 SWAP7 SWAP6 POP POP POP POP POP POP JUMP JUMPDEST PUSH1 0x0 PUSH1 0x20 DUP3 MSTORE PUSH2 0xFAC PUSH1 0x20 DUP4 ADD DUP5 PUSH2 0x1EBA JUMP JUMPDEST PUSH1 0x20 DUP1 DUP3 MSTORE PUSH1 0x32 SWAP1 DUP3 ADD MSTORE PUSH32 0x4552433732313A207472616E7366657220746F206E6F6E204552433732315265 PUSH1 0x40 DUP3 ADD MSTORE PUSH18 0x31B2B4BB32B91034B6B83632B6B2B73A32B9 PUSH1 0x71 SHL PUSH1 0x60 DUP3 ADD MSTORE PUSH1 0x80 ADD SWAP1 JUMP JUMPDEST PUSH1 0x20 DUP1 DUP3 MSTORE DUP2 DUP2 ADD MSTORE PUSH32 0x4F776E61626C653A2063616C6C6572206973206E6F7420746865206F776E6572 PUSH1 0x40 DUP3 ADD MSTORE PUSH1 0x60 ADD SWAP1 JUMP JUMPDEST PUSH1 0x20 DUP1 DUP3 MSTORE PUSH1 0x31 SWAP1 DUP3 ADD MSTORE PUSH32 0x4552433732313A207472616E736665722063616C6C6572206973206E6F74206F PUSH1 0x40 DUP3 ADD MSTORE PUSH17 0x1DDB995C881B9BDC88185C1C1C9BDD9959 PUSH1 0x7A SHL PUSH1 0x60 DUP3 ADD MSTORE PUSH1 0x80 ADD SWAP1 JUMP JUMPDEST PUSH1 0x0 DUP3 NOT DUP3 GT ISZERO PUSH2 0x2127 JUMPI PUSH2 0x2127 PUSH2 0x220C JUMP JUMPDEST POP ADD SWAP1 JUMP JUMPDEST PUSH1 0x0 DUP3 PUSH2 0x213B JUMPI PUSH2 0x213B PUSH2 0x2222 JUMP JUMPDEST POP DIV SWAP1 JUMP JUMPDEST PUSH1 0x0 DUP2 PUSH1 0x0 NOT DIV DUP4 GT DUP3 ISZERO ISZERO AND ISZERO PUSH2 0x215A JUMPI PUSH2 0x215A PUSH2 0x220C JUMP JUMPDEST POP MUL SWAP1 JUMP JUMPDEST PUSH1 0x0 DUP3 DUP3 LT ISZERO PUSH2 0x2171 JUMPI PUSH2 0x2171 PUSH2 0x220C JUMP JUMPDEST POP SUB SWAP1 JUMP JUMPDEST PUSH1 0x0 JUMPDEST DUP4 DUP2 LT ISZERO PUSH2 0x2191 JUMPI DUP2 DUP2 ADD MLOAD DUP4 DUP3 ADD MSTORE PUSH1 0x20 ADD PUSH2 0x2179 JUMP JUMPDEST DUP4 DUP2 GT ISZERO PUSH2 0xE41 JUMPI POP POP PUSH1 0x0 SWAP2 ADD MSTORE JUMP JUMPDEST PUSH1 0x2 DUP2 DIV PUSH1 0x1 DUP3 AND DUP1 PUSH2 0x21B6 JUMPI PUSH1 0x7F DUP3 AND SWAP2 POP JUMPDEST PUSH1 0x20 DUP3 LT DUP2 EQ ISZERO PUSH2 0x21D7 JUMPI PUSH4 0x4E487B71 PUSH1 0xE0 SHL PUSH1 0x0 MSTORE PUSH1 0x22 PUSH1 0x4 MSTORE PUSH1 0x24 PUSH1 0x0 REVERT JUMPDEST POP SWAP2 SWAP1 POP JUMP JUMPDEST PUSH1 0x0 PUSH1 0x0 NOT DUP3 EQ ISZERO PUSH2 0x21F1 JUMPI PUSH2 0x21F1 PUSH2 0x220C JUMP JUMPDEST POP PUSH1 0x1 ADD SWAP1 JUMP JUMPDEST PUSH1 0x0 DUP3 PUSH2 0x2207 JUMPI PUSH2 0x2207 PUSH2 0x2222 JUMP JUMPDEST POP MOD SWAP1 JUMP JUMPDEST PUSH4 0x4E487B71 PUSH1 0xE0 SHL PUSH1 0x0 MSTORE PUSH1 0x11 PUSH1 0x4 MSTORE PUSH1 0x24 PUSH1 0x0 REVERT JUMPDEST PUSH4 0x4E487B71 PUSH1 0xE0 SHL PUSH1 0x0 MSTORE PUSH1 0x12 PUSH1 0x4 MSTORE PUSH1 0x24 PUSH1 0x0 REVERT JUMPDEST PUSH4 0x4E487B71 PUSH1 0xE0 SHL PUSH1 0x0 MSTORE PUSH1 0x41 PUSH1 0x4 MSTORE PUSH1 0x24 PUSH1 0x0 REVERT JUMPDEST PUSH1 0x1 PUSH1 0x1 PUSH1 0xE0 SHL SUB NOT DUP2 AND DUP2 EQ PUSH2 0x9F8 JUMPI PUSH1 0x0 DUP1 REVERT INVALID LOG2 PUSH5 0x6970667358 0x22 SLT KECCAK256 0xF8 PUSH17 0x40173A4F7D326EDAC3BABAEA2C3C649705 0xB4 0xBD CREATE 0xB1 0xAC SIGNEXTEND EXTCODECOPY PUSH14 0xF0B445EA4364736F6C6343000802 STOP CALLER "
        },
        "methodIdentifiers": {
          "approve(address,uint256)": "095ea7b3",
          "balanceOf(address)": "70a08231",
          "baseExtension()": "c6682862",
          "cost()": "13faede6",
          "getApproved(uint256)": "081812fc",
          "isApprovedForAll(address,address)": "e985e9c5",
          "maxMintAmount()": "239c70ae",
          "maxSupply()": "d5abeb01",
          "mint(uint256)": "a0712d68",
          "name()": "06fdde03",
          "owner()": "8da5cb5b",
          "ownerOf(uint256)": "6352211e",
          "pause(bool)": "02329a29",
          "paused()": "5c975abb",
          "renounceOwnership()": "715018a6",
          "safeTransferFrom(address,address,uint256)": "42842e0e",
          "safeTransferFrom(address,address,uint256,bytes)": "b88d4fde",
          "setApprovalForAll(address,bool)": "a22cb465",
          "setBaseExtension(string)": "da3ef23f",
          "setBaseURI(string)": "55f804b3",
          "setCost(uint256)": "44a0d68a",
          "setmaxMintAmount(uint256)": "7f00c7a6",
          "supportsInterface(bytes4)": "01ffc9a7",
          "symbol()": "95d89b41",
          "tokenByIndex(uint256)": "4f6ccce7",
          "tokenOfOwnerByIndex(address,uint256)": "2f745c59",
          "tokenURI(uint256)": "c87b56dd",
          "totalSupply()": "18160ddd",
          "transferFrom(address,address,uint256)": "23b872dd",
          "transferOwnership(address)": "f2fde38b",
          "walletOfOwner(address)": "438b6300",
          "withdraw()": "3ccfd60b"
        }
      }
    }
  }
}