{
  "_format": "hh-sol-artifact-1",
  "contractName": "MemeNFT",
  "sourceName": "contracts/meme_nft.sol",
  "abi": [
    {
      "inputs": [
        {
          "internalType": "string",
          "name": "_name",
          "type": "string"
        },
        {
          "internalType": "string",
          "name": "_symbol",
          "type": "string"
        },
        {
          "internalType": "string",
          "name": "_initBaseURI",
          "type": "string"
        }
      ],
      "stateMutability": "nonpayable",
      "type": "constructor"
    },
    {
      "anonymous": false,
      "inputs": [
        {
          "indexed": true,
          "internalType": "address",
          "name": "owner",
          "type": "address"
        },
        {
          "indexed": true,
          "internalType": "address",
          "name": "approved",
          "type": "address"
        },
        {
          "indexed": true,
          "internalType": "uint256",
          "name": "tokenId",
          "type": "uint256"
        }
      ],
      "name": "Approval",
      "type": "event"
    },
    {
      "anonymous": false,
      "inputs": [
        {
          "indexed": true,
          "internalType": "address",
          "name": "owner",
          "type": "address"
        },
        {
          "indexed": true,
          "internalType": "address",
          "name": "operator",
          "type": "address"
        },
        {
          "indexed": false,
          "internalType": "bool",
          "name": "approved",
          "type": "bool"
        }
      ],
      "name": "ApprovalForAll",
      "type": "event"
    },
    {
      "anonymous": false,
      "inputs": [
        {
          "indexed": true,
          "internalType": "address",
          "name": "previousOwner",
          "type": "address"
        },
        {
          "indexed": true,
          "internalType": "address",
          "name": "newOwner",
          "type": "address"
        }
      ],
      "name": "OwnershipTransferred",
      "type": "event"
    },
    {
      "anonymous": false,
      "inputs": [
        {
          "indexed": true,
          "internalType": "address",
          "name": "from",
          "type": "address"
        },
        {
          "indexed": true,
          "internalType": "address",
          "name": "to",
          "type": "address"
        },
        {
          "indexed": true,
          "internalType": "uint256",
          "name": "tokenId",
          "type": "uint256"
        }
      ],
      "name": "Transfer",
      "type": "event"
    },
    {
      "inputs": [
        {
          "internalType": "address",
          "name": "to",
          "type": "address"
        },
        {
          "internalType": "uint256",
          "name": "tokenId",
          "type": "uint256"
        }
      ],
      "name": "approve",
      "outputs": [],
      "stateMutability": "nonpayable",
      "type": "function"
    },
    {
      "inputs": [
        {
          "internalType": "address",
          "name": "owner",
          "type": "address"
        }
      ],
      "name": "balanceOf",
      "outputs": [
        {
          "internalType": "uint256",
          "name": "",
          "type": "uint256"
        }
      ],
      "stateMutability": "view",
      "type": "function"
    },
    {
      "inputs": [],
      "name": "baseExtension",
      "outputs": [
        {
          "internalType": "string",
          "name": "",
          "type": "string"
        }
      ],
      "stateMutability": "view",
      "type": "function"
    },
    {
      "inputs": [],
      "name": "cost",
      "outputs": [
        {
          "internalType": "uint256",
          "name": "",
          "type": "uint256"
        }
      ],
      "stateMutability": "view",
      "type": "function"
    },
    {
      "inputs": [
        {
          "internalType": "uint256",
          "name": "tokenId",
          "type": "uint256"
        }
      ],
      "name": "getApproved",
      "outputs": [
        {
          "internalType": "address",
          "name": "",
          "type": "address"
        }
      ],
      "stateMutability": "view",
      "type": "function"
    },
    {
      "inputs": [
        {
          "internalType": "address",
          "name": "owner",
          "type": "address"
        },
        {
          "internalType": "address",
          "name": "operator",
          "type": "address"
        }
      ],
      "name": "isApprovedForAll",
      "outputs": [
        {
          "internalType": "bool",
          "name": "",
          "type": "bool"
        }
      ],
      "stateMutability": "view",
      "type": "function"
    },
    {
      "inputs": [],
      "name": "maxMintAmount",
      "outputs": [
        {
          "internalType": "uint256",
          "name": "",
          "type": "uint256"
        }
      ],
      "stateMutability": "view",
      "type": "function"
    },
    {
      "inputs": [],
      "name": "maxSupply",
      "outputs": [
        {
          "internalType": "uint256",
          "name": "",
          "type": "uint256"
        }
      ],
      "stateMutability": "view",
      "type": "function"
    },
    {
      "inputs": [
        {
          "internalType": "uint256",
          "name": "_mintAmount",
          "type": "uint256"
        }
      ],
      "name": "mint",
      "outputs": [],
      "stateMutability": "payable",
      "type": "function"
    },
    {
      "inputs": [],
      "name": "name",
      "outputs": [
        {
          "internalType": "string",
          "name": "",
          "type": "string"
        }
      ],
      "stateMutability": "view",
      "type": "function"
    },
    {
      "inputs": [],
      "name": "owner",
      "outputs": [
        {
          "internalType": "address",
          "name": "",
          "type": "address"
        }
      ],
      "stateMutability": "view",
      "type": "function"
    },
    {
      "inputs": [
        {
          "internalType": "uint256",
          "name": "tokenId",
          "type": "uint256"
        }
      ],
      "name": "ownerOf",
      "outputs": [
        {
          "internalType": "address",
          "name": "",
          "type": "address"
        }
      ],
      "stateMutability": "view",
      "type": "function"
    },
    {
      "inputs": [
        {
          "internalType": "bool",
          "name": "_state",
          "type": "bool"
        }
      ],
      "name": "pause",
      "outputs": [],
      "stateMutability": "nonpayable",
      "type": "function"
    },
    {
      "inputs": [],
      "name": "paused",
      "outputs": [
        {
          "internalType": "bool",
          "name": "",
          "type": "bool"
        }
      ],
      "stateMutability": "view",
      "type": "function"
    },
    {
      "inputs": [],
      "name": "renounceOwnership",
      "outputs": [],
      "stateMutability": "nonpayable",
      "type": "function"
    },
    {
      "inputs": [
        {
          "internalType": "address",
          "name": "from",
          "type": "address"
        },
        {
          "internalType": "address",
          "name": "to",
          "type": "address"
        },
        {
          "internalType": "uint256",
          "name": "tokenId",
          "type": "uint256"
        }
      ],
      "name": "safeTransferFrom",
      "outputs": [],
      "stateMutability": "nonpayable",
      "type": "function"
    },
    {
      "inputs": [
        {
          "internalType": "address",
          "name": "from",
          "type": "address"
        },
        {
          "internalType": "address",
          "name": "to",
          "type": "address"
        },
        {
          "internalType": "uint256",
          "name": "tokenId",
          "type": "uint256"
        },
        {
          "internalType": "bytes",
          "name": "_data",
          "type": "bytes"
        }
      ],
      "name": "safeTransferFrom",
      "outputs": [],
      "stateMutability": "nonpayable",
      "type": "function"
    },
    {
      "inputs": [
        {
          "internalType": "address",
          "name": "operator",
          "type": "address"
        },
        {
          "internalType": "bool",
          "name": "approved",
          "type": "bool"
        }
      ],
      "name": "setApprovalForAll",
      "outputs": [],
      "stateMutability": "nonpayable",
      "type": "function"
    },
    {
      "inputs": [
        {
          "internalType": "string",
          "name": "_newBaseExtension",
          "type": "string"
        }
      ],
      "name": "setBaseExtension",
      "outputs": [],
      "stateMutability": "nonpayable",
      "type": "function"
    },
    {
      "inputs": [
        {
          "internalType": "string",
          "name": "_newBaseURI",
          "type": "string"
        }
      ],
      "name": "setBaseURI",
      "outputs": [],
      "stateMutability": "nonpayable",
      "type": "function"
    },
    {
      "inputs": [
        {
          "internalType": "uint256",
          "name": "_newCost",
          "type": "uint256"
        }
      ],
      "name": "setCost",
      "outputs": [],
      "stateMutability": "nonpayable",
      "type": "function"
    },
    {
      "inputs": [
        {
          "internalType": "uint256",
          "name": "_newmaxMintAmount",
          "type": "uint256"
        }
      ],
      "name": "setmaxMintAmount",
      "outputs": [],
      "stateMutability": "nonpayable",
      "type": "function"
    },
    {
      "inputs": [
        {
          "internalType": "bytes4",
          "name": "interfaceId",
          "type": "bytes4"
        }
      ],
      "name": "supportsInterface",
      "outputs": [
        {
          "internalType": "bool",
          "name": "",
          "type": "bool"
        }
      ],
      "stateMutability": "view",
      "type": "function"
    },
    {
      "inputs": [],
      "name": "symbol",
      "outputs": [
        {
          "internalType": "string",
          "name": "",
          "type": "string"
        }
      ],
      "stateMutability": "view",
      "type": "function"
    },
    {
      "inputs": [
        {
          "internalType": "uint256",
          "name": "index",
          "type": "uint256"
        }
      ],
      "name": "tokenByIndex",
      "outputs": [
        {
          "internalType": "uint256",
          "name": "",
          "type": "uint256"
        }
      ],
      "stateMutability": "view",
      "type": "function"
    },
    {
      "inputs": [
        {
          "internalType": "address",
          "name": "owner",
          "type": "address"
        },
        {
          "internalType": "uint256",
          "name": "index",
          "type": "uint256"
        }
      ],
      "name": "tokenOfOwnerByIndex",
      "outputs": [
        {
          "internalType": "uint256",
          "name": "",
          "type": "uint256"
        }
      ],
      "stateMutability": "view",
      "type": "function"
    },
    {
      "inputs": [
        {
          "internalType": "uint256",
          "name": "tokenId",
          "type": "uint256"
        }
      ],
      "name": "tokenURI",
      "outputs": [
        {
          "internalType": "string",
          "name": "",
          "type": "string"
        }
      ],
      "stateMutability": "view",
      "type": "function"
    },
    {
      "inputs": [],
      "name": "totalSupply",
      "outputs": [
        {
          "internalType": "uint256",
          "name": "",
          "type": "uint256"
        }
      ],
      "stateMutability": "view",
      "type": "function"
    },
    {
      "inputs": [
        {
          "internalType": "address",
          "name": "from",
          "type": "address"
        },
        {
          "internalType": "address",
          "name": "to",
          "type": "address"
        },
        {
          "internalType": "uint256",
          "name": "tokenId",
          "type": "uint256"
        }
      ],
      "name": "transferFrom",
      "outputs": [],
      "stateMutability": "nonpayable",
      "type": "function"
    },
    {
      "inputs": [
        {
          "internalType": "address",
          "name": "newOwner",
          "type": "address"
        }
      ],
      "name": "transferOwnership",
      "outputs": [],
      "stateMutability": "nonpayable",
      "type": "function"
    },
    {
      "inputs": [
        {
          "internalType": "address",
          "name": "_owner",
          "type": "address"
        }
      ],
      "name": "walletOfOwner",
      "outputs": [
        {
          "internalType": "uint256[]",
          "name": "",
          "type": "uint256[]"
        }
      ],
      "stateMutability": "view",
      "type": "function"
    },
    {
      "inputs": [],
      "name": "withdraw",
      "outputs": [],
      "stateMutability": "payable",
      "type": "function"
    }
  ],
  "bytecode": "0x60c06040526005608081905264173539b7b760d91b60a09081526200002891600c9190620001a7565b50670de0b6b3a7640000600d55601a600e556002600f556010805460ff191690553480156200005657600080fd5b506040516200268a3803806200268a833981016040819052620000799162000300565b82518390839062000092906000906020850190620001a7565b508051620000a8906001906020840190620001a7565b505050620000c5620000bf620000d960201b60201c565b620000dd565b620000d0816200012f565b505050620003e0565b3390565b600a80546001600160a01b038381166001600160a01b0319831681179093556040519116919082907f8be0079c531659141344cd1fd0a4f28419497f9722a3daafe3b4186f6b6457e090600090a35050565b600a546001600160a01b031633146200018e5760405162461bcd60e51b815260206004820181905260248201527f4f776e61626c653a2063616c6c6572206973206e6f7420746865206f776e6572604482015260640160405180910390fd5b8051620001a390600b906020840190620001a7565b5050565b828054620001b5906200038d565b90600052602060002090601f016020900481019282620001d9576000855562000224565b82601f10620001f457805160ff191683800117855562000224565b8280016001018555821562000224579182015b828111156200022457825182559160200191906001019062000207565b506200023292915062000236565b5090565b5b8082111562000232576000815560010162000237565b600082601f8301126200025e578081fd5b81516001600160401b03808211156200027b576200027b620003ca565b604051601f8301601f19908116603f01168101908282118183101715620002a657620002a6620003ca565b81604052838152602092508683858801011115620002c2578485fd5b8491505b83821015620002e55785820183015181830184015290820190620002c6565b83821115620002f657848385830101525b9695505050505050565b60008060006060848603121562000315578283fd5b83516001600160401b03808211156200032c578485fd5b6200033a878388016200024d565b9450602086015191508082111562000350578384fd5b6200035e878388016200024d565b9350604086015191508082111562000374578283fd5b5062000383868287016200024d565b9150509250925092565b600281046001821680620003a257607f821691505b60208210811415620003c457634e487b7160e01b600052602260045260246000fd5b50919050565b634e487b7160e01b600052604160045260246000fd5b61229a80620003f06000396000f3fe6080604052600436106101e35760003560e01c80635c975abb11610102578063a22cb46511610095578063d5abeb0111610064578063d5abeb0114610547578063da3ef23f1461055d578063e985e9c51461057d578063f2fde38b146105c6576101e3565b8063a22cb465146104d2578063b88d4fde146104f2578063c668286214610512578063c87b56dd14610527576101e3565b80637f00c7a6116100d15780637f00c7a61461046c5780638da5cb5b1461048c57806395d89b41146104aa578063a0712d68146104bf576101e3565b80635c975abb146103fd5780636352211e1461041757806370a0823114610437578063715018a614610457576101e3565b806323b872dd1161017a578063438b630011610149578063438b63001461037057806344a0d68a1461039d5780634f6ccce7146103bd57806355f804b3146103dd576101e3565b806323b872dd146103085780632f745c59146103285780633ccfd60b1461034857806342842e0e14610350576101e3565b8063095ea7b3116101b6578063095ea7b31461029957806313faede6146102b957806318160ddd146102dd578063239c70ae146102f2576101e3565b806301ffc9a7146101e857806302329a291461021d57806306fdde031461023f578063081812fc14610261575b600080fd5b3480156101f457600080fd5b50610208610203366004611e24565b6105e6565b60405190151581526020015b60405180910390f35b34801561022957600080fd5b5061023d610238366004611e0a565b610613565b005b34801561024b57600080fd5b50610254610659565b6040516102149190612029565b34801561026d57600080fd5b5061028161027c366004611ea2565b6106eb565b6040516001600160a01b039091168152602001610214565b3480156102a557600080fd5b5061023d6102b4366004611de1565b610780565b3480156102c557600080fd5b506102cf600d5481565b604051908152602001610214565b3480156102e957600080fd5b506008546102cf565b3480156102fe57600080fd5b506102cf600f5481565b34801561031457600080fd5b5061023d610323366004611d04565b610896565b34801561033457600080fd5b506102cf610343366004611de1565b6108c7565b61023d61095d565b34801561035c57600080fd5b5061023d61036b366004611d04565b6109fb565b34801561037c57600080fd5b5061039061038b366004611cb8565b610a16565b6040516102149190611fe5565b3480156103a957600080fd5b5061023d6103b8366004611ea2565b610ad4565b3480156103c957600080fd5b506102cf6103d8366004611ea2565b610b03565b3480156103e957600080fd5b5061023d6103f8366004611e5c565b610ba4565b34801561040957600080fd5b506010546102089060ff1681565b34801561042357600080fd5b50610281610432366004611ea2565b610be5565b34801561044357600080fd5b506102cf610452366004611cb8565b610c5c565b34801561046357600080fd5b5061023d610ce3565b34801561047857600080fd5b5061023d610487366004611ea2565b610d19565b34801561049857600080fd5b50600a546001600160a01b0316610281565b3480156104b657600080fd5b50610254610d48565b61023d6104cd366004611ea2565b610d57565b3480156104de57600080fd5b5061023d6104ed366004611db8565b610e04565b3480156104fe57600080fd5b5061023d61050d366004611d3f565b610e0f565b34801561051e57600080fd5b50610254610e47565b34801561053357600080fd5b50610254610542366004611ea2565b610ed5565b34801561055357600080fd5b506102cf600e5481565b34801561056957600080fd5b5061023d610578366004611e5c565b610fb3565b34801561058957600080fd5b50610208610598366004611cd2565b6001600160a01b03918216600090815260056020908152604080832093909416825291909152205460ff1690565b3480156105d257600080fd5b5061023d6105e1366004611cb8565b610ff0565b60006001600160e01b0319821663780e9d6360e01b148061060b575061060b82611088565b90505b919050565b600a546001600160a01b031633146106465760405162461bcd60e51b815260040161063d9061208e565b60405180910390fd5b6010805460ff1916911515919091179055565b606060008054610668906121a2565b80601f0160208091040260200160405190810160405280929190818152602001828054610694906121a2565b80156106e15780601f106106b6576101008083540402835291602001916106e1565b820191906000526020600020905b8154815290600101906020018083116106c457829003601f168201915b5050505050905090565b6000818152600260205260408120546001600160a01b03166107645760405162461bcd60e51b815260206004820152602c60248201527f4552433732313a20617070726f76656420717565727920666f72206e6f6e657860448201526b34b9ba32b73a103a37b5b2b760a11b606482015260840161063d565b506000908152600460205260409020546001600160a01b031690565b600061078b82610be5565b9050806001600160a01b0316836001600160a01b031614156107f95760405162461bcd60e51b815260206004820152602160248201527f4552433732313a20617070726f76616c20746f2063757272656e74206f776e656044820152603960f91b606482015260840161063d565b336001600160a01b038216148061081557506108158133610598565b6108875760405162461bcd60e51b815260206004820152603860248201527f4552433732313a20617070726f76652063616c6c6572206973206e6f74206f7760448201527f6e6572206e6f7220617070726f76656420666f7220616c6c0000000000000000606482015260840161063d565b61089183836110d8565b505050565b6108a03382611146565b6108bc5760405162461bcd60e51b815260040161063d906120c3565b61089183838361123d565b60006108d283610c5c565b82106109345760405162461bcd60e51b815260206004820152602b60248201527f455243373231456e756d657261626c653a206f776e657220696e646578206f7560448201526a74206f6620626f756e647360a81b606482015260840161063d565b506001600160a01b03919091166000908152600660209081526040808320938352929052205490565b600a546001600160a01b031633146109875760405162461bcd60e51b815260040161063d9061208e565b600061099b600a546001600160a01b031690565b6001600160a01b03164760405160006040518083038185875af1925050503d80600081146109e5576040519150601f19603f3d011682016040523d82523d6000602084013e6109ea565b606091505b50509050806109f857600080fd5b50565b61089183838360405180602001604052806000815250610e0f565b60606000610a2383610c5c565b905060008167ffffffffffffffff811115610a4e57634e487b7160e01b600052604160045260246000fd5b604051908082528060200260200182016040528015610a77578160200160208202803683370190505b50905060005b82811015610acc57610a8f85826108c7565b828281518110610aaf57634e487b7160e01b600052603260045260246000fd5b602090810291909101015280610ac4816121dd565b915050610a7d565b509392505050565b600a546001600160a01b03163314610afe5760405162461bcd60e51b815260040161063d9061208e565b600d55565b6000610b0e60085490565b8210610b715760405162461bcd60e51b815260206004820152602c60248201527f455243373231456e756d657261626c653a20676c6f62616c20696e646578206f60448201526b7574206f6620626f756e647360a01b606482015260840161063d565b60088281548110610b9257634e487b7160e01b600052603260045260246000fd5b90600052602060002001549050919050565b600a546001600160a01b03163314610bce5760405162461bcd60e51b815260040161063d9061208e565b8051610be190600b906020840190611b82565b5050565b6000818152600260205260408120546001600160a01b03168061060b5760405162461bcd60e51b815260206004820152602960248201527f4552433732313a206f776e657220717565727920666f72206e6f6e657869737460448201526832b73a103a37b5b2b760b91b606482015260840161063d565b60006001600160a01b038216610cc75760405162461bcd60e51b815260206004820152602a60248201527f4552433732313a2062616c616e636520717565727920666f7220746865207a65604482015269726f206164647265737360b01b606482015260840161063d565b506001600160a01b031660009081526003602052604090205490565b600a546001600160a01b03163314610d0d5760405162461bcd60e51b815260040161063d9061208e565b610d1760006113e4565b565b600a546001600160a01b03163314610d435760405162461bcd60e51b815260040161063d9061208e565b600f55565b606060018054610668906121a2565b6000610d6260085490565b60105490915060ff1615610d7557600080fd5b60008211610d8257600080fd5b600f54821115610d9157600080fd5b600e54610d9e8383612114565b1115610da957600080fd5b600a546001600160a01b03163314610dd55781600d54610dc99190612140565b341015610dd557600080fd5b60015b82811161089157610df233610ded8385612114565b611436565b80610dfc816121dd565b915050610dd8565b610be1338383611450565b610e193383611146565b610e355760405162461bcd60e51b815260040161063d906120c3565b610e418484848461151f565b50505050565b600c8054610e54906121a2565b80601f0160208091040260200160405190810160405280929190818152602001828054610e80906121a2565b8015610ecd5780601f10610ea257610100808354040283529160200191610ecd565b820191906000526020600020905b815481529060010190602001808311610eb057829003601f168201915b505050505081565b6000818152600260205260409020546060906001600160a01b0316610f545760405162461bcd60e51b815260206004820152602f60248201527f4552433732314d657461646174613a2055524920717565727920666f72206e6f60448201526e3732bc34b9ba32b73a103a37b5b2b760891b606482015260840161063d565b6000610f5e611552565b90506000815111610f7e5760405180602001604052806000815250610fac565b80610f8884611561565b600c604051602001610f9c93929190611ee6565b6040516020818303038152906040525b9392505050565b600a546001600160a01b03163314610fdd5760405162461bcd60e51b815260040161063d9061208e565b8051610be190600c906020840190611b82565b600a546001600160a01b0316331461101a5760405162461bcd60e51b815260040161063d9061208e565b6001600160a01b03811661107f5760405162461bcd60e51b815260206004820152602660248201527f4f776e61626c653a206e6577206f776e657220697320746865207a65726f206160448201526564647265737360d01b606482015260840161063d565b6109f8816113e4565b60006001600160e01b031982166380ac58cd60e01b14806110b957506001600160e01b03198216635b5e139f60e01b145b8061060b57506301ffc9a760e01b6001600160e01b031983161461060b565b600081815260046020526040902080546001600160a01b0319166001600160a01b038416908117909155819061110d82610be5565b6001600160a01b03167f8c5be1e5ebec7d5bd14f71427d1e84f3dd0314c0f7b2291e5b200ac8c7c3b92560405160405180910390a45050565b6000818152600260205260408120546001600160a01b03166111bf5760405162461bcd60e51b815260206004820152602c60248201527f4552433732313a206f70657261746f7220717565727920666f72206e6f6e657860448201526b34b9ba32b73a103a37b5b2b760a11b606482015260840161063d565b60006111ca83610be5565b9050806001600160a01b0316846001600160a01b0316148061121157506001600160a01b0380821660009081526005602090815260408083209388168352929052205460ff165b806112355750836001600160a01b031661122a846106eb565b6001600160a01b0316145b949350505050565b826001600160a01b031661125082610be5565b6001600160a01b0316146112b45760405162461bcd60e51b815260206004820152602560248201527f4552433732313a207472616e736665722066726f6d20696e636f72726563742060448201526437bbb732b960d91b606482015260840161063d565b6001600160a01b0382166113165760405162461bcd60e51b8152602060048201526024808201527f4552433732313a207472616e7366657220746f20746865207a65726f206164646044820152637265737360e01b606482015260840161063d565b61132183838361167c565b61132c6000826110d8565b6001600160a01b038316600090815260036020526040812080546001929061135590849061215f565b90915550506001600160a01b0382166000908152600360205260408120805460019290611383908490612114565b909155505060008181526002602052604080822080546001600160a01b0319166001600160a01b0386811691821790925591518493918716917fddf252ad1be2c89b69c2b068fc378daa952ba7f163c4a11628f55a4df523b3ef91a4610891565b600a80546001600160a01b038381166001600160a01b0319831681179093556040519116919082907f8be0079c531659141344cd1fd0a4f28419497f9722a3daafe3b4186f6b6457e090600090a35050565b610be1828260405180602001604052806000815250611739565b816001600160a01b0316836001600160a01b031614156114b25760405162461bcd60e51b815260206004820152601960248201527f4552433732313a20617070726f766520746f2063616c6c657200000000000000604482015260640161063d565b6001600160a01b03838116600081815260056020908152604080832094871680845294825291829020805460ff191686151590811790915591519182527f17307eab39ab6107e8899845ad3d59bd9653f200f220920489ca2b5937696c31910160405180910390a3505050565b61152a84848461123d565b6115368484848461176c565b610e415760405162461bcd60e51b815260040161063d9061203c565b6060600b8054610668906121a2565b60608161158657506040805180820190915260018152600360fc1b602082015261060e565b8160005b81156115b0578061159a816121dd565b91506115a99050600a8361212c565b915061158a565b60008167ffffffffffffffff8111156115d957634e487b7160e01b600052604160045260246000fd5b6040519080825280601f01601f191660200182016040528015611603576020820181803683370190505b5090505b84156112355761161860018361215f565b9150611625600a866121f8565b611630906030612114565b60f81b81838151811061165357634e487b7160e01b600052603260045260246000fd5b60200101906001600160f81b031916908160001a905350611675600a8661212c565b9450611607565b6001600160a01b0383166116d7576116d281600880546000838152600960205260408120829055600182018355919091527ff3f7a9fe364faab93b216da50a3214154f22a0a2b415b23a84c8169e8b636ee30155565b6116fa565b816001600160a01b0316836001600160a01b0316146116fa576116fa8382611879565b6001600160a01b0382166117165761171181611916565b610891565b826001600160a01b0316826001600160a01b0316146108915761089182826119ef565b6117438383611a33565b611750600084848461176c565b6108915760405162461bcd60e51b815260040161063d9061203c565b60006001600160a01b0384163b1561186e57604051630a85bd0160e11b81526001600160a01b0385169063150b7a02906117b0903390899088908890600401611fa8565b602060405180830381600087803b1580156117ca57600080fd5b505af19250505080156117fa575060408051601f3d908101601f191682019092526117f791810190611e40565b60015b611854573d808015611828576040519150601f19603f3d011682016040523d82523d6000602084013e61182d565b606091505b50805161184c5760405162461bcd60e51b815260040161063d9061203c565b805181602001fd5b6001600160e01b031916630a85bd0160e11b149050611235565b506001949350505050565b6000600161188684610c5c565b611890919061215f565b6000838152600760205260409020549091508082146118e3576001600160a01b03841660009081526006602090815260408083208584528252808320548484528184208190558352600790915290208190555b5060009182526007602090815260408084208490556001600160a01b039094168352600681528383209183525290812055565b6008546000906119289060019061215f565b6000838152600960205260408120546008805493945090928490811061195e57634e487b7160e01b600052603260045260246000fd5b90600052602060002001549050806008838154811061198d57634e487b7160e01b600052603260045260246000fd5b60009182526020808320909101929092558281526009909152604080822084905585825281205560088054806119d357634e487b7160e01b600052603160045260246000fd5b6001900381819060005260206000200160009055905550505050565b60006119fa83610c5c565b6001600160a01b039093166000908152600660209081526040808320868452825280832085905593825260079052919091209190915550565b6001600160a01b038216611a895760405162461bcd60e51b815260206004820181905260248201527f4552433732313a206d696e7420746f20746865207a65726f2061646472657373604482015260640161063d565b6000818152600260205260409020546001600160a01b031615611aee5760405162461bcd60e51b815260206004820152601c60248201527f4552433732313a20746f6b656e20616c7265616479206d696e74656400000000604482015260640161063d565b611afa6000838361167c565b6001600160a01b0382166000908152600360205260408120805460019290611b23908490612114565b909155505060008181526002602052604080822080546001600160a01b0319166001600160a01b03861690811790915590518392907fddf252ad1be2c89b69c2b068fc378daa952ba7f163c4a11628f55a4df523b3ef908290a4610be1565b828054611b8e906121a2565b90600052602060002090601f016020900481019282611bb05760008555611bf6565b82601f10611bc957805160ff1916838001178555611bf6565b82800160010185558215611bf6579182015b82811115611bf6578251825591602001919060010190611bdb565b50611c02929150611c06565b5090565b5b80821115611c025760008155600101611c07565b600067ffffffffffffffff80841115611c3657611c36612238565b604051601f8501601f19908116603f01168101908282118183101715611c5e57611c5e612238565b81604052809350858152868686011115611c7757600080fd5b858560208301376000602087830101525050509392505050565b80356001600160a01b038116811461060e57600080fd5b8035801515811461060e57600080fd5b600060208284031215611cc9578081fd5b610fac82611c91565b60008060408385031215611ce4578081fd5b611ced83611c91565b9150611cfb60208401611c91565b90509250929050565b600080600060608486031215611d18578081fd5b611d2184611c91565b9250611d2f60208501611c91565b9150604084013590509250925092565b60008060008060808587031215611d54578081fd5b611d5d85611c91565b9350611d6b60208601611c91565b925060408501359150606085013567ffffffffffffffff811115611d8d578182fd5b8501601f81018713611d9d578182fd5b611dac87823560208401611c1b565b91505092959194509250565b60008060408385031215611dca578182fd5b611dd383611c91565b9150611cfb60208401611ca8565b60008060408385031215611df3578182fd5b611dfc83611c91565b946020939093013593505050565b600060208284031215611e1b578081fd5b610fac82611ca8565b600060208284031215611e35578081fd5b8135610fac8161224e565b600060208284031215611e51578081fd5b8151610fac8161224e565b600060208284031215611e6d578081fd5b813567ffffffffffffffff811115611e83578182fd5b8201601f81018413611e93578182fd5b61123584823560208401611c1b565b600060208284031215611eb3578081fd5b5035919050565b60008151808452611ed2816020860160208601612176565b601f01601f19169290920160200192915050565b600084516020611ef98285838a01612176565b855191840191611f0c8184848a01612176565b8554920191839060028104600180831680611f2857607f831692505b858310811415611f4657634e487b7160e01b88526022600452602488fd5b808015611f5a5760018114611f6b57611f97565b60ff19851688528388019550611f97565b60008b815260209020895b85811015611f8f5781548a820152908401908801611f76565b505083880195505b50939b9a5050505050505050505050565b6001600160a01b0385811682528416602082015260408101839052608060608201819052600090611fdb90830184611eba565b9695505050505050565b6020808252825182820181905260009190848201906040850190845b8181101561201d57835183529284019291840191600101612001565b50909695505050505050565b600060208252610fac6020830184611eba565b60208082526032908201527f4552433732313a207472616e7366657220746f206e6f6e20455243373231526560408201527131b2b4bb32b91034b6b83632b6b2b73a32b960711b606082015260800190565b6020808252818101527f4f776e61626c653a2063616c6c6572206973206e6f7420746865206f776e6572604082015260600190565b60208082526031908201527f4552433732313a207472616e736665722063616c6c6572206973206e6f74206f6040820152701ddb995c881b9bdc88185c1c1c9bdd9959607a1b606082015260800190565b600082198211156121275761212761220c565b500190565b60008261213b5761213b612222565b500490565b600081600019048311821515161561215a5761215a61220c565b500290565b6000828210156121715761217161220c565b500390565b60005b83811015612191578181015183820152602001612179565b83811115610e415750506000910152565b6002810460018216806121b657607f821691505b602082108114156121d757634e487b7160e01b600052602260045260246000fd5b50919050565b60006000198214156121f1576121f161220c565b5060010190565b60008261220757612207612222565b500690565b634e487b7160e01b600052601160045260246000fd5b634e487b7160e01b600052601260045260246000fd5b634e487b7160e01b600052604160045260246000fd5b6001600160e01b0319811681146109f857600080fdfea2646970667358221220f87040173a4f7d326edac3babaea2c3c649705b4bdf0b1ac0b3c6df0b445ea4364736f6c63430008020033",
  "linkReferences": {},
  "deployedLinkReferences": {}
}